{
  "_format": "hh-sol-artifact-1",
  "contractName": "Factiiv",
  "sourceName": "contracts/Factiiv.sol",
  "abi": [
    {
      "inputs": [
        {
          "internalType": "string",
          "name": "did",
          "type": "string"
        }
      ],
      "name": "addUser",
      "outputs": [],
      "stateMutability": "nonpayable",
      "type": "function"
    },
    {
      "inputs": [
        {
          "internalType": "string",
          "name": "did",
          "type": "string"
        },
        {
          "internalType": "string",
          "name": "cid",
          "type": "string"
        }
      ],
      "name": "addUserCid",
      "outputs": [],
      "stateMutability": "nonpayable",
      "type": "function"
    },
    {
      "inputs": [
        {
          "internalType": "string",
          "name": "cid",
          "type": "string"
        }
      ],
      "name": "getCidReviews",
      "outputs": [
        {
          "components": [
            {
              "internalType": "uint256",
              "name": "time",
              "type": "uint256"
            },
            {
              "internalType": "string",
              "name": "reviewerDid",
              "type": "string"
            },
            {
              "internalType": "enum Factiiv.Status",
              "name": "givenStatus",
              "type": "uint8"
            }
          ],
          "internalType": "struct Factiiv.Review[]",
          "name": "",
          "type": "tuple[]"
        }
      ],
      "stateMutability": "view",
      "type": "function"
    },
    {
      "inputs": [
        {
          "internalType": "string",
          "name": "cid",
          "type": "string"
        }
      ],
      "name": "getCidStatus",
      "outputs": [
        {
          "internalType": "enum Factiiv.Status",
          "name": "",
          "type": "uint8"
        }
      ],
      "stateMutability": "view",
      "type": "function"
    },
    {
      "inputs": [],
      "name": "getNetworkCids",
      "outputs": [
        {
          "components": [
            {
              "internalType": "string",
              "name": "did",
              "type": "string"
            },
            {
              "internalType": "string",
              "name": "cid",
              "type": "string"
            }
          ],
          "internalType": "struct Factiiv.NetworkCid[]",
          "name": "",
          "type": "tuple[]"
        }
      ],
      "stateMutability": "view",
      "type": "function"
    },
    {
      "inputs": [
        {
          "internalType": "string",
          "name": "did",
          "type": "string"
        }
      ],
      "name": "getUserCids",
      "outputs": [
        {
          "internalType": "string[]",
          "name": "",
          "type": "string[]"
        }
      ],
      "stateMutability": "view",
      "type": "function"
    },
    {
      "inputs": [
        {
          "internalType": "string",
          "name": "did",
          "type": "string"
        }
      ],
      "name": "getUserScore",
      "outputs": [
        {
          "internalType": "uint16",
          "name": "",
          "type": "uint16"
        }
      ],
      "stateMutability": "view",
      "type": "function"
    },
    {
      "inputs": [
        {
          "internalType": "string",
          "name": "did",
          "type": "string"
        }
      ],
      "name": "getUserStatus",
      "outputs": [
        {
          "internalType": "uint256",
          "name": "",
          "type": "uint256"
        },
        {
          "internalType": "uint256",
          "name": "",
          "type": "uint256"
        },
        {
          "internalType": "uint256",
          "name": "",
          "type": "uint256"
        },
        {
          "internalType": "uint256",
          "name": "",
          "type": "uint256"
        }
      ],
      "stateMutability": "view",
      "type": "function"
    },
    {
      "inputs": [
        {
          "internalType": "string",
          "name": "did",
          "type": "string"
        },
        {
          "internalType": "string",
          "name": "cid",
          "type": "string"
        }
      ],
      "name": "refuteCid",
      "outputs": [],
      "stateMutability": "nonpayable",
      "type": "function"
    },
    {
      "inputs": [
        {
          "internalType": "string",
          "name": "did",
          "type": "string"
        },
        {
          "internalType": "string",
          "name": "cid",
          "type": "string"
        }
      ],
      "name": "verifyCid",
      "outputs": [],
      "stateMutability": "nonpayable",
      "type": "function"
    }
  ],
  "bytecode": "0x608060405234801561001057600080fd5b50612a00806100206000396000f3fe608060405234801561001057600080fd5b506004361061009e5760003560e01c806321ad8d141161006657806321ad8d141461016e578063434283081461018a5780634a0a01ac146101ba5780634ed0d683146101ea578063e0b97d57146102065761009e565b806307e9c883146100a35780630e34e749146100d657806318b8275a1461010657806319570ea9146101225780631c6120e81461013e575b600080fd5b6100bd60048036038101906100b891906121c7565b610224565b6040516100cd9493929190612666565b60405180910390f35b6100f060048036038101906100eb91906121c7565b610754565b6040516100fd91906125ec565b60405180910390f35b610120600480360381019061011b91906121c7565b610a57565b005b61013c60048036038101906101379190612208565b610bf6565b005b610158600480360381019061015391906121c7565b610e7f565b604051610165919061264b565b60405180910390f35b61018860048036038101906101839190612208565b610fac565b005b6101a4600480360381019061019f91906121c7565b611236565b6040516101b1919061260e565b60405180910390f35b6101d460048036038101906101cf91906121c7565b6113ce565b6040516101e191906125a8565b60405180910390f35b61020460048036038101906101ff9190612208565b6115bc565b005b61020e61195b565b60405161021b91906125ca565b60405180910390f35b6000806000808460018015156001836040516102409190612591565b908152602001604051809103902060000160009054906101000a900460ff1615151481156102a3576040518060400160405280601281526020017f5573657220646f73656e277420657869737400000000000000000000000000008152506102da565b6040518060400160405280601381526020017f5573657220616c726561647920657869737473000000000000000000000000008152505b9061031b576040517f08c379a00000000000000000000000000000000000000000000000000000000081526004016103129190612629565b60405180910390fd5b5060008060008060018b6040516103329190612591565b9081526020016040518091039020600101805480602002602001604051908101604052809291908181526020016000905b8282101561040f5783829060005260206000200180546103829061286e565b80601f01602080910402602001604051908101604052809291908181526020018280546103ae9061286e565b80156103fb5780601f106103d0576101008083540402835291602001916103fb565b820191906000526020600020905b8154815290600101906020018083116103de57829003601f168201915b505050505081526020019060010190610363565b50505050905060005b8151811015610716576002600481111561045b577f4e487b7100000000000000000000000000000000000000000000000000000000600052602160045260246000fd5b6002838381518110610496577f4e487b7100000000000000000000000000000000000000000000000000000000600052603260045260246000fd5b60200260200101516040516104ab9190612591565b908152602001604051809103902060009054906101000a900460ff1660048111156104ff577f4e487b7100000000000000000000000000000000000000000000000000000000600052602160045260246000fd5b1415610518578480610510906128a0565b955050610703565b60036004811115610552577f4e487b7100000000000000000000000000000000000000000000000000000000600052602160045260246000fd5b600283838151811061058d577f4e487b7100000000000000000000000000000000000000000000000000000000600052603260045260246000fd5b60200260200101516040516105a29190612591565b908152602001604051809103902060009054906101000a900460ff1660048111156105f6577f4e487b7100000000000000000000000000000000000000000000000000000000600052602160045260246000fd5b141561060f578380610607906128a0565b945050610702565b600480811115610648577f4e487b7100000000000000000000000000000000000000000000000000000000600052602160045260246000fd5b6002838381518110610683577f4e487b7100000000000000000000000000000000000000000000000000000000600052603260045260246000fd5b60200260200101516040516106989190612591565b908152602001604051809103902060009054906101000a900460ff1660048111156106ec577f4e487b7100000000000000000000000000000000000000000000000000000000600052602160045260246000fd5b14156107015782806106fd906128a0565b9350505b5b5b808061070e906128a0565b915050610418565b5060018b6040516107279190612591565b90815260200160405180910390206001018054905084848499509950995099505050505050509193509193565b606081600080151560006004811115610796577f4e487b7100000000000000000000000000000000000000000000000000000000600052602160045260246000fd5b6002846040516107a69190612591565b908152602001604051809103902060009054906101000a900460ff1660048111156107fa577f4e487b7100000000000000000000000000000000000000000000000000000000600052602160045260246000fd5b141515148161083e576040518060400160405280600f81526020017f436964206e6f742070726573656e740000000000000000000000000000000000815250610875565b6040518060400160405280601381526020017f43696420616c72656164792070726573656e74000000000000000000000000008152505b906108b6576040517f08c379a00000000000000000000000000000000000000000000000000000000081526004016108ad9190612629565b60405180910390fd5b506003846040516108c79190612591565b9081526020016040518091039020805480602002602001604051908101604052809291908181526020016000905b82821015610a4a5783829060005260206000209060030201604051806060016040529081600082015481526020016001820180546109329061286e565b80601f016020809104026020016040519081016040528092919081815260200182805461095e9061286e565b80156109ab5780601f10610980576101008083540402835291602001916109ab565b820191906000526020600020905b81548152906001019060200180831161098e57829003601f168201915b505050505081526020016002820160009054906101000a900460ff1660048111156109ff577f4e487b7100000000000000000000000000000000000000000000000000000000600052602160045260246000fd5b6004811115610a37577f4e487b7100000000000000000000000000000000000000000000000000000000600052602160045260246000fd5b81525050815260200190600101906108f5565b5050505092505050919050565b806000801515600183604051610a6d9190612591565b908152602001604051809103902060000160009054906101000a900460ff161515148115610ad0576040518060400160405280601281526020017f5573657220646f73656e27742065786973740000000000000000000000000000815250610b07565b6040518060400160405280601381526020017f5573657220616c726561647920657869737473000000000000000000000000008152505b90610b48576040517f08c379a0000000000000000000000000000000000000000000000000000000008152600401610b3f9190612629565b60405180910390fd5b506060604051806060016040528060011515815260200161012c61ffff16815260200182815250600185604051610b7f9190612591565b908152602001604051809103902060008201518160000160006101000a81548160ff02191690831515021790555060208201518160000160016101000a81548161ffff021916908361ffff1602179055506040820151816001019080519060200190610bec929190611ff8565b5090505050505050565b80600080151560006004811115610c36577f4e487b7100000000000000000000000000000000000000000000000000000000600052602160045260246000fd5b600284604051610c469190612591565b908152602001604051809103902060009054906101000a900460ff166004811115610c9a577f4e487b7100000000000000000000000000000000000000000000000000000000600052602160045260246000fd5b1415151481610cde576040518060400160405280600f81526020017f436964206e6f742070726573656e740000000000000000000000000000000000815250610d15565b6040518060400160405280601381526020017f43696420616c72656164792070726573656e74000000000000000000000000008152505b90610d56576040517f08c379a0000000000000000000000000000000000000000000000000000000008152600401610d4d9190612629565b60405180910390fd5b50600383604051610d679190612591565b90815260200160405180910390206040518060600160405280428152602001868152602001600480811115610dc5577f4e487b7100000000000000000000000000000000000000000000000000000000600052602160045260246000fd5b8152509080600181540180825580915050600190039060005260206000209060030201600090919091909150600082015181600001556020820151816001019080519060200190610e17929190612058565b5060408201518160020160006101000a81548160ff02191690836004811115610e69577f4e487b7100000000000000000000000000000000000000000000000000000000600052602160045260246000fd5b02179055505050610e7983611ade565b50505050565b6000816001801515600183604051610e979190612591565b908152602001604051809103902060000160009054906101000a900460ff161515148115610efa576040518060400160405280601281526020017f5573657220646f73656e27742065786973740000000000000000000000000000815250610f31565b6040518060400160405280601381526020017f5573657220616c726561647920657869737473000000000000000000000000008152505b90610f72576040517f08c379a0000000000000000000000000000000000000000000000000000000008152600401610f699190612629565b60405180910390fd5b50600184604051610f839190612591565b908152602001604051809103902060000160019054906101000a900461ffff1692505050919050565b80600080151560006004811115610fec577f4e487b7100000000000000000000000000000000000000000000000000000000600052602160045260246000fd5b600284604051610ffc9190612591565b908152602001604051809103902060009054906101000a900460ff166004811115611050577f4e487b7100000000000000000000000000000000000000000000000000000000600052602160045260246000fd5b1415151481611094576040518060400160405280600f81526020017f436964206e6f742070726573656e7400000000000000000000000000000000008152506110cb565b6040518060400160405280601381526020017f43696420616c72656164792070726573656e74000000000000000000000000008152505b9061110c576040517f08c379a00000000000000000000000000000000000000000000000000000000081526004016111039190612629565b60405180910390fd5b5060038360405161111d9190612591565b908152602001604051809103902060405180606001604052804281526020018681526020016002600481111561117c577f4e487b7100000000000000000000000000000000000000000000000000000000600052602160045260246000fd5b81525090806001815401808255809150506001900390600052602060002090600302016000909190919091506000820151816000015560208201518160010190805190602001906111ce929190612058565b5060408201518160020160006101000a81548160ff02191690836004811115611220577f4e487b7100000000000000000000000000000000000000000000000000000000600052602160045260246000fd5b0217905550505061123083611ade565b50505050565b600081600080151560006004811115611278577f4e487b7100000000000000000000000000000000000000000000000000000000600052602160045260246000fd5b6002846040516112889190612591565b908152602001604051809103902060009054906101000a900460ff1660048111156112dc577f4e487b7100000000000000000000000000000000000000000000000000000000600052602160045260246000fd5b1415151481611320576040518060400160405280600f81526020017f436964206e6f742070726573656e740000000000000000000000000000000000815250611357565b6040518060400160405280601381526020017f43696420616c72656164792070726573656e74000000000000000000000000008152505b90611398576040517f08c379a000000000000000000000000000000000000000000000000000000000815260040161138f9190612629565b60405180910390fd5b506002846040516113a99190612591565b908152602001604051809103902060009054906101000a900460ff1692505050919050565b60608160018015156001836040516113e69190612591565b908152602001604051809103902060000160009054906101000a900460ff161515148115611449576040518060400160405280601281526020017f5573657220646f73656e27742065786973740000000000000000000000000000815250611480565b6040518060400160405280601381526020017f5573657220616c726561647920657869737473000000000000000000000000008152505b906114c1576040517f08c379a00000000000000000000000000000000000000000000000000000000081526004016114b89190612629565b60405180910390fd5b506001846040516114d29190612591565b9081526020016040518091039020600101805480602002602001604051908101604052809291908181526020016000905b828210156115af5783829060005260206000200180546115229061286e565b80601f016020809104026020016040519081016040528092919081815260200182805461154e9061286e565b801561159b5780601f106115705761010080835404028352916020019161159b565b820191906000526020600020905b81548152906001019060200180831161157e57829003601f168201915b505050505081526020019060010190611503565b5050505092505050919050565b8160018015156001836040516115d29190612591565b908152602001604051809103902060000160009054906101000a900460ff161515148115611635576040518060400160405280601281526020017f5573657220646f73656e2774206578697374000000000000000000000000000081525061166c565b6040518060400160405280601381526020017f5573657220616c726561647920657869737473000000000000000000000000008152505b906116ad576040517f08c379a00000000000000000000000000000000000000000000000000000000081526004016116a49190612629565b60405180910390fd5b50826001801515600060048111156116ee577f4e487b7100000000000000000000000000000000000000000000000000000000600052602160045260246000fd5b6002846040516116fe9190612591565b908152602001604051809103902060009054906101000a900460ff166004811115611752577f4e487b7100000000000000000000000000000000000000000000000000000000600052602160045260246000fd5b1415151481611796576040518060400160405280600f81526020017f436964206e6f742070726573656e7400000000000000000000000000000000008152506117cd565b6040518060400160405280601381526020017f43696420616c72656164792070726573656e74000000000000000000000000008152505b9061180e576040517f08c379a00000000000000000000000000000000000000000000000000000000081526004016118059190612629565b60405180910390fd5b5060018660405161181f9190612591565b908152602001604051809103902060010185908060018154018082558091505060019003906000526020600020016000909190919091509080519060200190611869929190612058565b50600160028660405161187c9190612591565b908152602001604051809103902060006101000a81548160ff021916908360048111156118d2577f4e487b7100000000000000000000000000000000000000000000000000000000600052602160045260246000fd5b0217905550600060405180604001604052808881526020018781525090806001815401808255809150506001900390600052602060002090600202016000909190919091506000820151816000019080519060200190611933929190612058565b506020820151816001019080519060200190611950929190612058565b505050505050505050565b60606000805480602002602001604051908101604052809291908181526020016000905b82821015611ad557838290600052602060002090600202016040518060400160405290816000820180546119b29061286e565b80601f01602080910402602001604051908101604052809291908181526020018280546119de9061286e565b8015611a2b5780601f10611a0057610100808354040283529160200191611a2b565b820191906000526020600020905b815481529060010190602001808311611a0e57829003601f168201915b50505050508152602001600182018054611a449061286e565b80601f0160208091040260200160405190810160405280929190818152602001828054611a709061286e565b8015611abd5780601f10611a9257610100808354040283529160200191611abd565b820191906000526020600020905b815481529060010190602001808311611aa057829003601f168201915b5050505050815250508152602001906001019061197f565b50505050905090565b60008060005b600384604051611af49190612591565b908152602001604051809103902080549050811015611d1757600480811115611b46577f4e487b7100000000000000000000000000000000000000000000000000000000600052602160045260246000fd5b600385604051611b569190612591565b90815260200160405180910390208281548110611b9c577f4e487b7100000000000000000000000000000000000000000000000000000000600052603260045260246000fd5b906000526020600020906003020160020160009054906101000a900460ff166004811115611bf3577f4e487b7100000000000000000000000000000000000000000000000000000000600052602160045260246000fd5b1415611c08578180611c04906128a0565b9250505b60026004811115611c42577f4e487b7100000000000000000000000000000000000000000000000000000000600052602160045260246000fd5b600385604051611c529190612591565b90815260200160405180910390208281548110611c98577f4e487b7100000000000000000000000000000000000000000000000000000000600052603260045260246000fd5b906000526020600020906003020160020160009054906101000a900460ff166004811115611cef577f4e487b7100000000000000000000000000000000000000000000000000000000600052602160045260246000fd5b1415611d04578280611d00906128a0565b9350505b8080611d0f906128a0565b915050611ae4565b5060038110611d9b576004600284604051611d329190612591565b908152602001604051809103902060006101000a81548160ff02191690836004811115611d88577f4e487b7100000000000000000000000000000000000000000000000000000000600052602160045260246000fd5b0217905550611d9683611e91565b611e8c565b60038210611e1d5760028084604051611db49190612591565b908152602001604051809103902060006101000a81548160ff02191690836004811115611e0a577f4e487b7100000000000000000000000000000000000000000000000000000000600052602160045260246000fd5b0217905550611e1883611e91565b611e8b565b6003600284604051611e2f9190612591565b908152602001604051809103902060006101000a81548160ff02191690836004811115611e85577f4e487b7100000000000000000000000000000000000000000000000000000000600052602160045260246000fd5b02179055505b5b505050565b60005b600080549050811015611f9b57611f7e60008281548110611ede577f4e487b7100000000000000000000000000000000000000000000000000000000600052603260045260246000fd5b90600052602060002090600202016001018054611efa9061286e565b80601f0160208091040260200160405190810160405280929190818152602001828054611f269061286e565b8015611f735780601f10611f4857610100808354040283529160200191611f73565b820191906000526020600020905b815481529060010190602001808311611f5657829003601f168201915b505050505083611f9f565b15611f8857611f9b565b8080611f93906128a0565b915050611e94565b5050565b600081604051602001611fb29190612591565b6040516020818303038152906040528051906020012083604051602001611fd99190612591565b6040516020818303038152906040528051906020012014905092915050565b828054828255906000526020600020908101928215612047579160200282015b82811115612046578251829080519060200190612036929190612058565b5091602001919060010190612018565b5b50905061205491906120de565b5090565b8280546120649061286e565b90600052602060002090601f01602090048101928261208657600085556120cd565b82601f1061209f57805160ff19168380011785556120cd565b828001600101855582156120cd579182015b828111156120cc5782518255916020019190600101906120b1565b5b5090506120da9190612102565b5090565b5b808211156120fe57600081816120f5919061211f565b506001016120df565b5090565b5b8082111561211b576000816000905550600101612103565b5090565b50805461212b9061286e565b6000825580601f1061213d575061215c565b601f01602090049060005260206000209081019061215b9190612102565b5b50565b600061217261216d846126dc565b6126ab565b90508281526020810184848401111561218a57600080fd5b61219584828561282c565b509392505050565b600082601f8301126121ae57600080fd5b81356121be84826020860161215f565b91505092915050565b6000602082840312156121d957600080fd5b600082013567ffffffffffffffff8111156121f357600080fd5b6121ff8482850161219d565b91505092915050565b6000806040838503121561221b57600080fd5b600083013567ffffffffffffffff81111561223557600080fd5b6122418582860161219d565b925050602083013567ffffffffffffffff81111561225e57600080fd5b61226a8582860161219d565b9150509250929050565b6000612280838361242d565b905092915050565b600061229483836124d0565b905092915050565b60006122a88383612514565b905092915050565b60006122bb8261273c565b6122c5818561278f565b9350836020820285016122d78561270c565b8060005b8581101561231357848403895281516122f48582612274565b94506122ff83612768565b925060208a019950506001810190506122db565b50829750879550505050505092915050565b600061233082612747565b61233a81856127a0565b93508360208202850161234c8561271c565b8060005b8581101561238857848403895281516123698582612288565b945061237483612775565b925060208a01995050600181019050612350565b50829750879550505050505092915050565b60006123a582612752565b6123af81856127b1565b9350836020820285016123c18561272c565b8060005b858110156123fd57848403895281516123de858261229c565b94506123e983612782565b925060208a019950506001810190506123c5565b50829750879550505050505092915050565b6124188161281a565b82525050565b6124278161281a565b82525050565b60006124388261275d565b61244281856127c2565b935061245281856020860161283b565b61245b816129a5565b840191505092915050565b60006124718261275d565b61247b81856127d3565b935061248b81856020860161283b565b612494816129a5565b840191505092915050565b60006124aa8261275d565b6124b481856127e4565b93506124c481856020860161283b565b80840191505092915050565b600060408301600083015184820360008601526124ed828261242d565b91505060208301518482036020860152612507828261242d565b9150508091505092915050565b600060608301600083015161252c6000860182612573565b5060208301518482036020860152612544828261242d565b9150506040830151612559604086018261240f565b508091505092915050565b61256d81612802565b82525050565b61257c81612810565b82525050565b61258b81612810565b82525050565b600061259d828461249f565b915081905092915050565b600060208201905081810360008301526125c281846122b0565b905092915050565b600060208201905081810360008301526125e48184612325565b905092915050565b60006020820190508181036000830152612606818461239a565b905092915050565b6000602082019050612623600083018461241e565b92915050565b600060208201905081810360008301526126438184612466565b905092915050565b60006020820190506126606000830184612564565b92915050565b600060808201905061267b6000830187612582565b6126886020830186612582565b6126956040830185612582565b6126a26060830184612582565b95945050505050565b6000604051905081810181811067ffffffffffffffff821117156126d2576126d1612976565b5b8060405250919050565b600067ffffffffffffffff8211156126f7576126f6612976565b5b601f19601f8301169050602081019050919050565b6000819050602082019050919050565b6000819050602082019050919050565b6000819050602082019050919050565b600081519050919050565b600081519050919050565b600081519050919050565b600081519050919050565b6000602082019050919050565b6000602082019050919050565b6000602082019050919050565b600082825260208201905092915050565b600082825260208201905092915050565b600082825260208201905092915050565b600082825260208201905092915050565b600082825260208201905092915050565b600081905092915050565b60008190506127fd826129b6565b919050565b600061ffff82169050919050565b6000819050919050565b6000612825826127ef565b9050919050565b82818337600083830152505050565b60005b8381101561285957808201518184015260208101905061283e565b83811115612868576000848401525b50505050565b6000600282049050600182168061288657607f821691505b6020821081141561289a57612899612947565b5b50919050565b60006128ab82612810565b91507fffffffffffffffffffffffffffffffffffffffffffffffffffffffffffffffff8214156128de576128dd6128e9565b5b600182019050919050565b7f4e487b7100000000000000000000000000000000000000000000000000000000600052601160045260246000fd5b7f4e487b7100000000000000000000000000000000000000000000000000000000600052602160045260246000fd5b7f4e487b7100000000000000000000000000000000000000000000000000000000600052602260045260246000fd5b7f4e487b7100000000000000000000000000000000000000000000000000000000600052604160045260246000fd5b6000601f19601f8301169050919050565b600581106129c7576129c6612918565b5b5056fea2646970667358221220820d9568db70b9ac7afa4f72a1e0db3e50ec187fe5b61b698e50fa439f82bd2764736f6c63430008000033",
  "linkReferences": {},
  "deployedLinkReferences": {}
}