{
  "contracts/Factiiv.sol": {
    "Factiiv": {
      "abi": [
        {
          "inputs": [
            {
              "internalType": "string",
              "name": "did",
              "type": "string"
            }
          ],
          "name": "addUser",
          "outputs": [],
          "stateMutability": "nonpayable",
          "type": "function"
        },
        {
          "inputs": [
            {
              "internalType": "string",
              "name": "did",
              "type": "string"
            },
            {
              "internalType": "string",
              "name": "cid",
              "type": "string"
            }
          ],
          "name": "addUserCid",
          "outputs": [],
          "stateMutability": "nonpayable",
          "type": "function"
        },
        {
          "inputs": [
            {
              "internalType": "string",
              "name": "cid",
              "type": "string"
            }
          ],
          "name": "getCidReviews",
          "outputs": [
            {
              "components": [
                {
                  "internalType": "uint256",
                  "name": "time",
                  "type": "uint256"
                },
                {
                  "internalType": "string",
                  "name": "reviewerDid",
                  "type": "string"
                },
                {
                  "internalType": "enum Factiiv.Status",
                  "name": "givenStatus",
                  "type": "uint8"
                }
              ],
              "internalType": "struct Factiiv.Review[]",
              "name": "",
              "type": "tuple[]"
            }
          ],
          "stateMutability": "view",
          "type": "function"
        },
        {
          "inputs": [
            {
              "internalType": "string",
              "name": "cid",
              "type": "string"
            }
          ],
          "name": "getCidStatus",
          "outputs": [
            {
              "internalType": "enum Factiiv.Status",
              "name": "",
              "type": "uint8"
            }
          ],
          "stateMutability": "view",
          "type": "function"
        },
        {
          "inputs": [],
          "name": "getNetworkCids",
          "outputs": [
            {
              "components": [
                {
                  "internalType": "string",
                  "name": "did",
                  "type": "string"
                },
                {
                  "internalType": "string",
                  "name": "cid",
                  "type": "string"
                }
              ],
              "internalType": "struct Factiiv.NetworkCid[]",
              "name": "",
              "type": "tuple[]"
            }
          ],
          "stateMutability": "view",
          "type": "function"
        },
        {
          "inputs": [
            {
              "internalType": "string",
              "name": "did",
              "type": "string"
            }
          ],
          "name": "getUserCids",
          "outputs": [
            {
              "internalType": "string[]",
              "name": "",
              "type": "string[]"
            }
          ],
          "stateMutability": "view",
          "type": "function"
        },
        {
          "inputs": [
            {
              "internalType": "string",
              "name": "did",
              "type": "string"
            }
          ],
          "name": "getUserScore",
          "outputs": [
            {
              "internalType": "uint16",
              "name": "",
              "type": "uint16"
            }
          ],
          "stateMutability": "view",
          "type": "function"
        },
        {
          "inputs": [
            {
              "internalType": "string",
              "name": "did",
              "type": "string"
            }
          ],
          "name": "getUserStatus",
          "outputs": [
            {
              "internalType": "uint256",
              "name": "",
              "type": "uint256"
            },
            {
              "internalType": "uint256",
              "name": "",
              "type": "uint256"
            },
            {
              "internalType": "uint256",
              "name": "",
              "type": "uint256"
            },
            {
              "internalType": "uint256",
              "name": "",
              "type": "uint256"
            }
          ],
          "stateMutability": "view",
          "type": "function"
        },
        {
          "inputs": [
            {
              "internalType": "string",
              "name": "did",
              "type": "string"
            },
            {
              "internalType": "string",
              "name": "cid",
              "type": "string"
            }
          ],
          "name": "refuteCid",
          "outputs": [],
          "stateMutability": "nonpayable",
          "type": "function"
        },
        {
          "inputs": [
            {
              "internalType": "string",
              "name": "did",
              "type": "string"
            },
            {
              "internalType": "string",
              "name": "cid",
              "type": "string"
            }
          ],
          "name": "verifyCid",
          "outputs": [],
          "stateMutability": "nonpayable",
          "type": "function"
        }
      ],
      "evm": {
        "bytecode": {
          "linkReferences": {},
          "object": "608060405234801561001057600080fd5b50612a00806100206000396000f3fe608060405234801561001057600080fd5b506004361061009e5760003560e01c806321ad8d141161006657806321ad8d141461016e578063434283081461018a5780634a0a01ac146101ba5780634ed0d683146101ea578063e0b97d57146102065761009e565b806307e9c883146100a35780630e34e749146100d657806318b8275a1461010657806319570ea9146101225780631c6120e81461013e575b600080fd5b6100bd60048036038101906100b891906121c7565b610224565b6040516100cd9493929190612666565b60405180910390f35b6100f060048036038101906100eb91906121c7565b610754565b6040516100fd91906125ec565b60405180910390f35b610120600480360381019061011b91906121c7565b610a57565b005b61013c60048036038101906101379190612208565b610bf6565b005b610158600480360381019061015391906121c7565b610e7f565b604051610165919061264b565b60405180910390f35b61018860048036038101906101839190612208565b610fac565b005b6101a4600480360381019061019f91906121c7565b611236565b6040516101b1919061260e565b60405180910390f35b6101d460048036038101906101cf91906121c7565b6113ce565b6040516101e191906125a8565b60405180910390f35b61020460048036038101906101ff9190612208565b6115bc565b005b61020e61195b565b60405161021b91906125ca565b60405180910390f35b6000806000808460018015156001836040516102409190612591565b908152602001604051809103902060000160009054906101000a900460ff1615151481156102a3576040518060400160405280601281526020017f5573657220646f73656e277420657869737400000000000000000000000000008152506102da565b6040518060400160405280601381526020017f5573657220616c726561647920657869737473000000000000000000000000008152505b9061031b576040517f08c379a00000000000000000000000000000000000000000000000000000000081526004016103129190612629565b60405180910390fd5b5060008060008060018b6040516103329190612591565b9081526020016040518091039020600101805480602002602001604051908101604052809291908181526020016000905b8282101561040f5783829060005260206000200180546103829061286e565b80601f01602080910402602001604051908101604052809291908181526020018280546103ae9061286e565b80156103fb5780601f106103d0576101008083540402835291602001916103fb565b820191906000526020600020905b8154815290600101906020018083116103de57829003601f168201915b505050505081526020019060010190610363565b50505050905060005b8151811015610716576002600481111561045b577f4e487b7100000000000000000000000000000000000000000000000000000000600052602160045260246000fd5b6002838381518110610496577f4e487b7100000000000000000000000000000000000000000000000000000000600052603260045260246000fd5b60200260200101516040516104ab9190612591565b908152602001604051809103902060009054906101000a900460ff1660048111156104ff577f4e487b7100000000000000000000000000000000000000000000000000000000600052602160045260246000fd5b1415610518578480610510906128a0565b955050610703565b60036004811115610552577f4e487b7100000000000000000000000000000000000000000000000000000000600052602160045260246000fd5b600283838151811061058d577f4e487b7100000000000000000000000000000000000000000000000000000000600052603260045260246000fd5b60200260200101516040516105a29190612591565b908152602001604051809103902060009054906101000a900460ff1660048111156105f6577f4e487b7100000000000000000000000000000000000000000000000000000000600052602160045260246000fd5b141561060f578380610607906128a0565b945050610702565b600480811115610648577f4e487b7100000000000000000000000000000000000000000000000000000000600052602160045260246000fd5b6002838381518110610683577f4e487b7100000000000000000000000000000000000000000000000000000000600052603260045260246000fd5b60200260200101516040516106989190612591565b908152602001604051809103902060009054906101000a900460ff1660048111156106ec577f4e487b7100000000000000000000000000000000000000000000000000000000600052602160045260246000fd5b14156107015782806106fd906128a0565b9350505b5b5b808061070e906128a0565b915050610418565b5060018b6040516107279190612591565b90815260200160405180910390206001018054905084848499509950995099505050505050509193509193565b606081600080151560006004811115610796577f4e487b7100000000000000000000000000000000000000000000000000000000600052602160045260246000fd5b6002846040516107a69190612591565b908152602001604051809103902060009054906101000a900460ff1660048111156107fa577f4e487b7100000000000000000000000000000000000000000000000000000000600052602160045260246000fd5b141515148161083e576040518060400160405280600f81526020017f436964206e6f742070726573656e740000000000000000000000000000000000815250610875565b6040518060400160405280601381526020017f43696420616c72656164792070726573656e74000000000000000000000000008152505b906108b6576040517f08c379a00000000000000000000000000000000000000000000000000000000081526004016108ad9190612629565b60405180910390fd5b506003846040516108c79190612591565b9081526020016040518091039020805480602002602001604051908101604052809291908181526020016000905b82821015610a4a5783829060005260206000209060030201604051806060016040529081600082015481526020016001820180546109329061286e565b80601f016020809104026020016040519081016040528092919081815260200182805461095e9061286e565b80156109ab5780601f10610980576101008083540402835291602001916109ab565b820191906000526020600020905b81548152906001019060200180831161098e57829003601f168201915b505050505081526020016002820160009054906101000a900460ff1660048111156109ff577f4e487b7100000000000000000000000000000000000000000000000000000000600052602160045260246000fd5b6004811115610a37577f4e487b7100000000000000000000000000000000000000000000000000000000600052602160045260246000fd5b81525050815260200190600101906108f5565b5050505092505050919050565b806000801515600183604051610a6d9190612591565b908152602001604051809103902060000160009054906101000a900460ff161515148115610ad0576040518060400160405280601281526020017f5573657220646f73656e27742065786973740000000000000000000000000000815250610b07565b6040518060400160405280601381526020017f5573657220616c726561647920657869737473000000000000000000000000008152505b90610b48576040517f08c379a0000000000000000000000000000000000000000000000000000000008152600401610b3f9190612629565b60405180910390fd5b506060604051806060016040528060011515815260200161012c61ffff16815260200182815250600185604051610b7f9190612591565b908152602001604051809103902060008201518160000160006101000a81548160ff02191690831515021790555060208201518160000160016101000a81548161ffff021916908361ffff1602179055506040820151816001019080519060200190610bec929190611ff8565b5090505050505050565b80600080151560006004811115610c36577f4e487b7100000000000000000000000000000000000000000000000000000000600052602160045260246000fd5b600284604051610c469190612591565b908152602001604051809103902060009054906101000a900460ff166004811115610c9a577f4e487b7100000000000000000000000000000000000000000000000000000000600052602160045260246000fd5b1415151481610cde576040518060400160405280600f81526020017f436964206e6f742070726573656e740000000000000000000000000000000000815250610d15565b6040518060400160405280601381526020017f43696420616c72656164792070726573656e74000000000000000000000000008152505b90610d56576040517f08c379a0000000000000000000000000000000000000000000000000000000008152600401610d4d9190612629565b60405180910390fd5b50600383604051610d679190612591565b90815260200160405180910390206040518060600160405280428152602001868152602001600480811115610dc5577f4e487b7100000000000000000000000000000000000000000000000000000000600052602160045260246000fd5b8152509080600181540180825580915050600190039060005260206000209060030201600090919091909150600082015181600001556020820151816001019080519060200190610e17929190612058565b5060408201518160020160006101000a81548160ff02191690836004811115610e69577f4e487b7100000000000000000000000000000000000000000000000000000000600052602160045260246000fd5b02179055505050610e7983611ade565b50505050565b6000816001801515600183604051610e979190612591565b908152602001604051809103902060000160009054906101000a900460ff161515148115610efa576040518060400160405280601281526020017f5573657220646f73656e27742065786973740000000000000000000000000000815250610f31565b6040518060400160405280601381526020017f5573657220616c726561647920657869737473000000000000000000000000008152505b90610f72576040517f08c379a0000000000000000000000000000000000000000000000000000000008152600401610f699190612629565b60405180910390fd5b50600184604051610f839190612591565b908152602001604051809103902060000160019054906101000a900461ffff1692505050919050565b80600080151560006004811115610fec577f4e487b7100000000000000000000000000000000000000000000000000000000600052602160045260246000fd5b600284604051610ffc9190612591565b908152602001604051809103902060009054906101000a900460ff166004811115611050577f4e487b7100000000000000000000000000000000000000000000000000000000600052602160045260246000fd5b1415151481611094576040518060400160405280600f81526020017f436964206e6f742070726573656e7400000000000000000000000000000000008152506110cb565b6040518060400160405280601381526020017f43696420616c72656164792070726573656e74000000000000000000000000008152505b9061110c576040517f08c379a00000000000000000000000000000000000000000000000000000000081526004016111039190612629565b60405180910390fd5b5060038360405161111d9190612591565b908152602001604051809103902060405180606001604052804281526020018681526020016002600481111561117c577f4e487b7100000000000000000000000000000000000000000000000000000000600052602160045260246000fd5b81525090806001815401808255809150506001900390600052602060002090600302016000909190919091506000820151816000015560208201518160010190805190602001906111ce929190612058565b5060408201518160020160006101000a81548160ff02191690836004811115611220577f4e487b7100000000000000000000000000000000000000000000000000000000600052602160045260246000fd5b0217905550505061123083611ade565b50505050565b600081600080151560006004811115611278577f4e487b7100000000000000000000000000000000000000000000000000000000600052602160045260246000fd5b6002846040516112889190612591565b908152602001604051809103902060009054906101000a900460ff1660048111156112dc577f4e487b7100000000000000000000000000000000000000000000000000000000600052602160045260246000fd5b1415151481611320576040518060400160405280600f81526020017f436964206e6f742070726573656e740000000000000000000000000000000000815250611357565b6040518060400160405280601381526020017f43696420616c72656164792070726573656e74000000000000000000000000008152505b90611398576040517f08c379a000000000000000000000000000000000000000000000000000000000815260040161138f9190612629565b60405180910390fd5b506002846040516113a99190612591565b908152602001604051809103902060009054906101000a900460ff1692505050919050565b60608160018015156001836040516113e69190612591565b908152602001604051809103902060000160009054906101000a900460ff161515148115611449576040518060400160405280601281526020017f5573657220646f73656e27742065786973740000000000000000000000000000815250611480565b6040518060400160405280601381526020017f5573657220616c726561647920657869737473000000000000000000000000008152505b906114c1576040517f08c379a00000000000000000000000000000000000000000000000000000000081526004016114b89190612629565b60405180910390fd5b506001846040516114d29190612591565b9081526020016040518091039020600101805480602002602001604051908101604052809291908181526020016000905b828210156115af5783829060005260206000200180546115229061286e565b80601f016020809104026020016040519081016040528092919081815260200182805461154e9061286e565b801561159b5780601f106115705761010080835404028352916020019161159b565b820191906000526020600020905b81548152906001019060200180831161157e57829003601f168201915b505050505081526020019060010190611503565b5050505092505050919050565b8160018015156001836040516115d29190612591565b908152602001604051809103902060000160009054906101000a900460ff161515148115611635576040518060400160405280601281526020017f5573657220646f73656e2774206578697374000000000000000000000000000081525061166c565b6040518060400160405280601381526020017f5573657220616c726561647920657869737473000000000000000000000000008152505b906116ad576040517f08c379a00000000000000000000000000000000000000000000000000000000081526004016116a49190612629565b60405180910390fd5b50826001801515600060048111156116ee577f4e487b7100000000000000000000000000000000000000000000000000000000600052602160045260246000fd5b6002846040516116fe9190612591565b908152602001604051809103902060009054906101000a900460ff166004811115611752577f4e487b7100000000000000000000000000000000000000000000000000000000600052602160045260246000fd5b1415151481611796576040518060400160405280600f81526020017f436964206e6f742070726573656e7400000000000000000000000000000000008152506117cd565b6040518060400160405280601381526020017f43696420616c72656164792070726573656e74000000000000000000000000008152505b9061180e576040517f08c379a00000000000000000000000000000000000000000000000000000000081526004016118059190612629565b60405180910390fd5b5060018660405161181f9190612591565b908152602001604051809103902060010185908060018154018082558091505060019003906000526020600020016000909190919091509080519060200190611869929190612058565b50600160028660405161187c9190612591565b908152602001604051809103902060006101000a81548160ff021916908360048111156118d2577f4e487b7100000000000000000000000000000000000000000000000000000000600052602160045260246000fd5b0217905550600060405180604001604052808881526020018781525090806001815401808255809150506001900390600052602060002090600202016000909190919091506000820151816000019080519060200190611933929190612058565b506020820151816001019080519060200190611950929190612058565b505050505050505050565b60606000805480602002602001604051908101604052809291908181526020016000905b82821015611ad557838290600052602060002090600202016040518060400160405290816000820180546119b29061286e565b80601f01602080910402602001604051908101604052809291908181526020018280546119de9061286e565b8015611a2b5780601f10611a0057610100808354040283529160200191611a2b565b820191906000526020600020905b815481529060010190602001808311611a0e57829003601f168201915b50505050508152602001600182018054611a449061286e565b80601f0160208091040260200160405190810160405280929190818152602001828054611a709061286e565b8015611abd5780601f10611a9257610100808354040283529160200191611abd565b820191906000526020600020905b815481529060010190602001808311611aa057829003601f168201915b5050505050815250508152602001906001019061197f565b50505050905090565b60008060005b600384604051611af49190612591565b908152602001604051809103902080549050811015611d1757600480811115611b46577f4e487b7100000000000000000000000000000000000000000000000000000000600052602160045260246000fd5b600385604051611b569190612591565b90815260200160405180910390208281548110611b9c577f4e487b7100000000000000000000000000000000000000000000000000000000600052603260045260246000fd5b906000526020600020906003020160020160009054906101000a900460ff166004811115611bf3577f4e487b7100000000000000000000000000000000000000000000000000000000600052602160045260246000fd5b1415611c08578180611c04906128a0565b9250505b60026004811115611c42577f4e487b7100000000000000000000000000000000000000000000000000000000600052602160045260246000fd5b600385604051611c529190612591565b90815260200160405180910390208281548110611c98577f4e487b7100000000000000000000000000000000000000000000000000000000600052603260045260246000fd5b906000526020600020906003020160020160009054906101000a900460ff166004811115611cef577f4e487b7100000000000000000000000000000000000000000000000000000000600052602160045260246000fd5b1415611d04578280611d00906128a0565b9350505b8080611d0f906128a0565b915050611ae4565b5060038110611d9b576004600284604051611d329190612591565b908152602001604051809103902060006101000a81548160ff02191690836004811115611d88577f4e487b7100000000000000000000000000000000000000000000000000000000600052602160045260246000fd5b0217905550611d9683611e91565b611e8c565b60038210611e1d5760028084604051611db49190612591565b908152602001604051809103902060006101000a81548160ff02191690836004811115611e0a577f4e487b7100000000000000000000000000000000000000000000000000000000600052602160045260246000fd5b0217905550611e1883611e91565b611e8b565b6003600284604051611e2f9190612591565b908152602001604051809103902060006101000a81548160ff02191690836004811115611e85577f4e487b7100000000000000000000000000000000000000000000000000000000600052602160045260246000fd5b02179055505b5b505050565b60005b600080549050811015611f9b57611f7e60008281548110611ede577f4e487b7100000000000000000000000000000000000000000000000000000000600052603260045260246000fd5b90600052602060002090600202016001018054611efa9061286e565b80601f0160208091040260200160405190810160405280929190818152602001828054611f269061286e565b8015611f735780601f10611f4857610100808354040283529160200191611f73565b820191906000526020600020905b815481529060010190602001808311611f5657829003601f168201915b505050505083611f9f565b15611f8857611f9b565b8080611f93906128a0565b915050611e94565b5050565b600081604051602001611fb29190612591565b6040516020818303038152906040528051906020012083604051602001611fd99190612591565b6040516020818303038152906040528051906020012014905092915050565b828054828255906000526020600020908101928215612047579160200282015b82811115612046578251829080519060200190612036929190612058565b5091602001919060010190612018565b5b50905061205491906120de565b5090565b8280546120649061286e565b90600052602060002090601f01602090048101928261208657600085556120cd565b82601f1061209f57805160ff19168380011785556120cd565b828001600101855582156120cd579182015b828111156120cc5782518255916020019190600101906120b1565b5b5090506120da9190612102565b5090565b5b808211156120fe57600081816120f5919061211f565b506001016120df565b5090565b5b8082111561211b576000816000905550600101612103565b5090565b50805461212b9061286e565b6000825580601f1061213d575061215c565b601f01602090049060005260206000209081019061215b9190612102565b5b50565b600061217261216d846126dc565b6126ab565b90508281526020810184848401111561218a57600080fd5b61219584828561282c565b509392505050565b600082601f8301126121ae57600080fd5b81356121be84826020860161215f565b91505092915050565b6000602082840312156121d957600080fd5b600082013567ffffffffffffffff8111156121f357600080fd5b6121ff8482850161219d565b91505092915050565b6000806040838503121561221b57600080fd5b600083013567ffffffffffffffff81111561223557600080fd5b6122418582860161219d565b925050602083013567ffffffffffffffff81111561225e57600080fd5b61226a8582860161219d565b9150509250929050565b6000612280838361242d565b905092915050565b600061229483836124d0565b905092915050565b60006122a88383612514565b905092915050565b60006122bb8261273c565b6122c5818561278f565b9350836020820285016122d78561270c565b8060005b8581101561231357848403895281516122f48582612274565b94506122ff83612768565b925060208a019950506001810190506122db565b50829750879550505050505092915050565b600061233082612747565b61233a81856127a0565b93508360208202850161234c8561271c565b8060005b8581101561238857848403895281516123698582612288565b945061237483612775565b925060208a01995050600181019050612350565b50829750879550505050505092915050565b60006123a582612752565b6123af81856127b1565b9350836020820285016123c18561272c565b8060005b858110156123fd57848403895281516123de858261229c565b94506123e983612782565b925060208a019950506001810190506123c5565b50829750879550505050505092915050565b6124188161281a565b82525050565b6124278161281a565b82525050565b60006124388261275d565b61244281856127c2565b935061245281856020860161283b565b61245b816129a5565b840191505092915050565b60006124718261275d565b61247b81856127d3565b935061248b81856020860161283b565b612494816129a5565b840191505092915050565b60006124aa8261275d565b6124b481856127e4565b93506124c481856020860161283b565b80840191505092915050565b600060408301600083015184820360008601526124ed828261242d565b91505060208301518482036020860152612507828261242d565b9150508091505092915050565b600060608301600083015161252c6000860182612573565b5060208301518482036020860152612544828261242d565b9150506040830151612559604086018261240f565b508091505092915050565b61256d81612802565b82525050565b61257c81612810565b82525050565b61258b81612810565b82525050565b600061259d828461249f565b915081905092915050565b600060208201905081810360008301526125c281846122b0565b905092915050565b600060208201905081810360008301526125e48184612325565b905092915050565b60006020820190508181036000830152612606818461239a565b905092915050565b6000602082019050612623600083018461241e565b92915050565b600060208201905081810360008301526126438184612466565b905092915050565b60006020820190506126606000830184612564565b92915050565b600060808201905061267b6000830187612582565b6126886020830186612582565b6126956040830185612582565b6126a26060830184612582565b95945050505050565b6000604051905081810181811067ffffffffffffffff821117156126d2576126d1612976565b5b8060405250919050565b600067ffffffffffffffff8211156126f7576126f6612976565b5b601f19601f8301169050602081019050919050565b6000819050602082019050919050565b6000819050602082019050919050565b6000819050602082019050919050565b600081519050919050565b600081519050919050565b600081519050919050565b600081519050919050565b6000602082019050919050565b6000602082019050919050565b6000602082019050919050565b600082825260208201905092915050565b600082825260208201905092915050565b600082825260208201905092915050565b600082825260208201905092915050565b600082825260208201905092915050565b600081905092915050565b60008190506127fd826129b6565b919050565b600061ffff82169050919050565b6000819050919050565b6000612825826127ef565b9050919050565b82818337600083830152505050565b60005b8381101561285957808201518184015260208101905061283e565b83811115612868576000848401525b50505050565b6000600282049050600182168061288657607f821691505b6020821081141561289a57612899612947565b5b50919050565b60006128ab82612810565b91507fffffffffffffffffffffffffffffffffffffffffffffffffffffffffffffffff8214156128de576128dd6128e9565b5b600182019050919050565b7f4e487b7100000000000000000000000000000000000000000000000000000000600052601160045260246000fd5b7f4e487b7100000000000000000000000000000000000000000000000000000000600052602160045260246000fd5b7f4e487b7100000000000000000000000000000000000000000000000000000000600052602260045260246000fd5b7f4e487b7100000000000000000000000000000000000000000000000000000000600052604160045260246000fd5b6000601f19601f8301169050919050565b600581106129c7576129c6612918565b5b5056fea2646970667358221220820d9568db70b9ac7afa4f72a1e0db3e50ec187fe5b61b698e50fa439f82bd2764736f6c63430008000033",
          "opcodes": "PUSH1 0x80 PUSH1 0x40 MSTORE CALLVALUE DUP1 ISZERO PUSH2 0x10 JUMPI PUSH1 0x0 DUP1 REVERT JUMPDEST POP PUSH2 0x2A00 DUP1 PUSH2 0x20 PUSH1 0x0 CODECOPY PUSH1 0x0 RETURN INVALID PUSH1 0x80 PUSH1 0x40 MSTORE CALLVALUE DUP1 ISZERO PUSH2 0x10 JUMPI PUSH1 0x0 DUP1 REVERT JUMPDEST POP PUSH1 0x4 CALLDATASIZE LT PUSH2 0x9E JUMPI PUSH1 0x0 CALLDATALOAD PUSH1 0xE0 SHR DUP1 PUSH4 0x21AD8D14 GT PUSH2 0x66 JUMPI DUP1 PUSH4 0x21AD8D14 EQ PUSH2 0x16E JUMPI DUP1 PUSH4 0x43428308 EQ PUSH2 0x18A JUMPI DUP1 PUSH4 0x4A0A01AC EQ PUSH2 0x1BA JUMPI DUP1 PUSH4 0x4ED0D683 EQ PUSH2 0x1EA JUMPI DUP1 PUSH4 0xE0B97D57 EQ PUSH2 0x206 JUMPI PUSH2 0x9E JUMP JUMPDEST DUP1 PUSH4 0x7E9C883 EQ PUSH2 0xA3 JUMPI DUP1 PUSH4 0xE34E749 EQ PUSH2 0xD6 JUMPI DUP1 PUSH4 0x18B8275A EQ PUSH2 0x106 JUMPI DUP1 PUSH4 0x19570EA9 EQ PUSH2 0x122 JUMPI DUP1 PUSH4 0x1C6120E8 EQ PUSH2 0x13E JUMPI JUMPDEST PUSH1 0x0 DUP1 REVERT JUMPDEST PUSH2 0xBD PUSH1 0x4 DUP1 CALLDATASIZE SUB DUP2 ADD SWAP1 PUSH2 0xB8 SWAP2 SWAP1 PUSH2 0x21C7 JUMP JUMPDEST PUSH2 0x224 JUMP JUMPDEST PUSH1 0x40 MLOAD PUSH2 0xCD SWAP5 SWAP4 SWAP3 SWAP2 SWAP1 PUSH2 0x2666 JUMP JUMPDEST PUSH1 0x40 MLOAD DUP1 SWAP2 SUB SWAP1 RETURN JUMPDEST PUSH2 0xF0 PUSH1 0x4 DUP1 CALLDATASIZE SUB DUP2 ADD SWAP1 PUSH2 0xEB SWAP2 SWAP1 PUSH2 0x21C7 JUMP JUMPDEST PUSH2 0x754 JUMP JUMPDEST PUSH1 0x40 MLOAD PUSH2 0xFD SWAP2 SWAP1 PUSH2 0x25EC JUMP JUMPDEST PUSH1 0x40 MLOAD DUP1 SWAP2 SUB SWAP1 RETURN JUMPDEST PUSH2 0x120 PUSH1 0x4 DUP1 CALLDATASIZE SUB DUP2 ADD SWAP1 PUSH2 0x11B SWAP2 SWAP1 PUSH2 0x21C7 JUMP JUMPDEST PUSH2 0xA57 JUMP JUMPDEST STOP JUMPDEST PUSH2 0x13C PUSH1 0x4 DUP1 CALLDATASIZE SUB DUP2 ADD SWAP1 PUSH2 0x137 SWAP2 SWAP1 PUSH2 0x2208 JUMP JUMPDEST PUSH2 0xBF6 JUMP JUMPDEST STOP JUMPDEST PUSH2 0x158 PUSH1 0x4 DUP1 CALLDATASIZE SUB DUP2 ADD SWAP1 PUSH2 0x153 SWAP2 SWAP1 PUSH2 0x21C7 JUMP JUMPDEST PUSH2 0xE7F JUMP JUMPDEST PUSH1 0x40 MLOAD PUSH2 0x165 SWAP2 SWAP1 PUSH2 0x264B JUMP JUMPDEST PUSH1 0x40 MLOAD DUP1 SWAP2 SUB SWAP1 RETURN JUMPDEST PUSH2 0x188 PUSH1 0x4 DUP1 CALLDATASIZE SUB DUP2 ADD SWAP1 PUSH2 0x183 SWAP2 SWAP1 PUSH2 0x2208 JUMP JUMPDEST PUSH2 0xFAC JUMP JUMPDEST STOP JUMPDEST PUSH2 0x1A4 PUSH1 0x4 DUP1 CALLDATASIZE SUB DUP2 ADD SWAP1 PUSH2 0x19F SWAP2 SWAP1 PUSH2 0x21C7 JUMP JUMPDEST PUSH2 0x1236 JUMP JUMPDEST PUSH1 0x40 MLOAD PUSH2 0x1B1 SWAP2 SWAP1 PUSH2 0x260E JUMP JUMPDEST PUSH1 0x40 MLOAD DUP1 SWAP2 SUB SWAP1 RETURN JUMPDEST PUSH2 0x1D4 PUSH1 0x4 DUP1 CALLDATASIZE SUB DUP2 ADD SWAP1 PUSH2 0x1CF SWAP2 SWAP1 PUSH2 0x21C7 JUMP JUMPDEST PUSH2 0x13CE JUMP JUMPDEST PUSH1 0x40 MLOAD PUSH2 0x1E1 SWAP2 SWAP1 PUSH2 0x25A8 JUMP JUMPDEST PUSH1 0x40 MLOAD DUP1 SWAP2 SUB SWAP1 RETURN JUMPDEST PUSH2 0x204 PUSH1 0x4 DUP1 CALLDATASIZE SUB DUP2 ADD SWAP1 PUSH2 0x1FF SWAP2 SWAP1 PUSH2 0x2208 JUMP JUMPDEST PUSH2 0x15BC JUMP JUMPDEST STOP JUMPDEST PUSH2 0x20E PUSH2 0x195B JUMP JUMPDEST PUSH1 0x40 MLOAD PUSH2 0x21B SWAP2 SWAP1 PUSH2 0x25CA JUMP JUMPDEST PUSH1 0x40 MLOAD DUP1 SWAP2 SUB SWAP1 RETURN JUMPDEST PUSH1 0x0 DUP1 PUSH1 0x0 DUP1 DUP5 PUSH1 0x1 DUP1 ISZERO ISZERO PUSH1 0x1 DUP4 PUSH1 0x40 MLOAD PUSH2 0x240 SWAP2 SWAP1 PUSH2 0x2591 JUMP JUMPDEST SWAP1 DUP2 MSTORE PUSH1 0x20 ADD PUSH1 0x40 MLOAD DUP1 SWAP2 SUB SWAP1 KECCAK256 PUSH1 0x0 ADD PUSH1 0x0 SWAP1 SLOAD SWAP1 PUSH2 0x100 EXP SWAP1 DIV PUSH1 0xFF AND ISZERO ISZERO EQ DUP2 ISZERO PUSH2 0x2A3 JUMPI PUSH1 0x40 MLOAD DUP1 PUSH1 0x40 ADD PUSH1 0x40 MSTORE DUP1 PUSH1 0x12 DUP2 MSTORE PUSH1 0x20 ADD PUSH32 0x5573657220646F73656E27742065786973740000000000000000000000000000 DUP2 MSTORE POP PUSH2 0x2DA JUMP JUMPDEST PUSH1 0x40 MLOAD DUP1 PUSH1 0x40 ADD PUSH1 0x40 MSTORE DUP1 PUSH1 0x13 DUP2 MSTORE PUSH1 0x20 ADD PUSH32 0x5573657220616C72656164792065786973747300000000000000000000000000 DUP2 MSTORE POP JUMPDEST SWAP1 PUSH2 0x31B JUMPI PUSH1 0x40 MLOAD PUSH32 0x8C379A000000000000000000000000000000000000000000000000000000000 DUP2 MSTORE PUSH1 0x4 ADD PUSH2 0x312 SWAP2 SWAP1 PUSH2 0x2629 JUMP JUMPDEST PUSH1 0x40 MLOAD DUP1 SWAP2 SUB SWAP1 REVERT JUMPDEST POP PUSH1 0x0 DUP1 PUSH1 0x0 DUP1 PUSH1 0x1 DUP12 PUSH1 0x40 MLOAD PUSH2 0x332 SWAP2 SWAP1 PUSH2 0x2591 JUMP JUMPDEST SWAP1 DUP2 MSTORE PUSH1 0x20 ADD PUSH1 0x40 MLOAD DUP1 SWAP2 SUB SWAP1 KECCAK256 PUSH1 0x1 ADD DUP1 SLOAD DUP1 PUSH1 0x20 MUL PUSH1 0x20 ADD PUSH1 0x40 MLOAD SWAP1 DUP2 ADD PUSH1 0x40 MSTORE DUP1 SWAP3 SWAP2 SWAP1 DUP2 DUP2 MSTORE PUSH1 0x20 ADD PUSH1 0x0 SWAP1 JUMPDEST DUP3 DUP3 LT ISZERO PUSH2 0x40F JUMPI DUP4 DUP3 SWAP1 PUSH1 0x0 MSTORE PUSH1 0x20 PUSH1 0x0 KECCAK256 ADD DUP1 SLOAD PUSH2 0x382 SWAP1 PUSH2 0x286E JUMP JUMPDEST DUP1 PUSH1 0x1F ADD PUSH1 0x20 DUP1 SWAP2 DIV MUL PUSH1 0x20 ADD PUSH1 0x40 MLOAD SWAP1 DUP2 ADD PUSH1 0x40 MSTORE DUP1 SWAP3 SWAP2 SWAP1 DUP2 DUP2 MSTORE PUSH1 0x20 ADD DUP3 DUP1 SLOAD PUSH2 0x3AE SWAP1 PUSH2 0x286E JUMP JUMPDEST DUP1 ISZERO PUSH2 0x3FB JUMPI DUP1 PUSH1 0x1F LT PUSH2 0x3D0 JUMPI PUSH2 0x100 DUP1 DUP4 SLOAD DIV MUL DUP4 MSTORE SWAP2 PUSH1 0x20 ADD SWAP2 PUSH2 0x3FB JUMP JUMPDEST DUP3 ADD SWAP2 SWAP1 PUSH1 0x0 MSTORE PUSH1 0x20 PUSH1 0x0 KECCAK256 SWAP1 JUMPDEST DUP2 SLOAD DUP2 MSTORE SWAP1 PUSH1 0x1 ADD SWAP1 PUSH1 0x20 ADD DUP1 DUP4 GT PUSH2 0x3DE JUMPI DUP3 SWAP1 SUB PUSH1 0x1F AND DUP3 ADD SWAP2 JUMPDEST POP POP POP POP POP DUP2 MSTORE PUSH1 0x20 ADD SWAP1 PUSH1 0x1 ADD SWAP1 PUSH2 0x363 JUMP JUMPDEST POP POP POP POP SWAP1 POP PUSH1 0x0 JUMPDEST DUP2 MLOAD DUP2 LT ISZERO PUSH2 0x716 JUMPI PUSH1 0x2 PUSH1 0x4 DUP2 GT ISZERO PUSH2 0x45B JUMPI PUSH32 0x4E487B7100000000000000000000000000000000000000000000000000000000 PUSH1 0x0 MSTORE PUSH1 0x21 PUSH1 0x4 MSTORE PUSH1 0x24 PUSH1 0x0 REVERT JUMPDEST PUSH1 0x2 DUP4 DUP4 DUP2 MLOAD DUP2 LT PUSH2 0x496 JUMPI PUSH32 0x4E487B7100000000000000000000000000000000000000000000000000000000 PUSH1 0x0 MSTORE PUSH1 0x32 PUSH1 0x4 MSTORE PUSH1 0x24 PUSH1 0x0 REVERT JUMPDEST PUSH1 0x20 MUL PUSH1 0x20 ADD ADD MLOAD PUSH1 0x40 MLOAD PUSH2 0x4AB SWAP2 SWAP1 PUSH2 0x2591 JUMP JUMPDEST SWAP1 DUP2 MSTORE PUSH1 0x20 ADD PUSH1 0x40 MLOAD DUP1 SWAP2 SUB SWAP1 KECCAK256 PUSH1 0x0 SWAP1 SLOAD SWAP1 PUSH2 0x100 EXP SWAP1 DIV PUSH1 0xFF AND PUSH1 0x4 DUP2 GT ISZERO PUSH2 0x4FF JUMPI PUSH32 0x4E487B7100000000000000000000000000000000000000000000000000000000 PUSH1 0x0 MSTORE PUSH1 0x21 PUSH1 0x4 MSTORE PUSH1 0x24 PUSH1 0x0 REVERT JUMPDEST EQ ISZERO PUSH2 0x518 JUMPI DUP5 DUP1 PUSH2 0x510 SWAP1 PUSH2 0x28A0 JUMP JUMPDEST SWAP6 POP POP PUSH2 0x703 JUMP JUMPDEST PUSH1 0x3 PUSH1 0x4 DUP2 GT ISZERO PUSH2 0x552 JUMPI PUSH32 0x4E487B7100000000000000000000000000000000000000000000000000000000 PUSH1 0x0 MSTORE PUSH1 0x21 PUSH1 0x4 MSTORE PUSH1 0x24 PUSH1 0x0 REVERT JUMPDEST PUSH1 0x2 DUP4 DUP4 DUP2 MLOAD DUP2 LT PUSH2 0x58D JUMPI PUSH32 0x4E487B7100000000000000000000000000000000000000000000000000000000 PUSH1 0x0 MSTORE PUSH1 0x32 PUSH1 0x4 MSTORE PUSH1 0x24 PUSH1 0x0 REVERT JUMPDEST PUSH1 0x20 MUL PUSH1 0x20 ADD ADD MLOAD PUSH1 0x40 MLOAD PUSH2 0x5A2 SWAP2 SWAP1 PUSH2 0x2591 JUMP JUMPDEST SWAP1 DUP2 MSTORE PUSH1 0x20 ADD PUSH1 0x40 MLOAD DUP1 SWAP2 SUB SWAP1 KECCAK256 PUSH1 0x0 SWAP1 SLOAD SWAP1 PUSH2 0x100 EXP SWAP1 DIV PUSH1 0xFF AND PUSH1 0x4 DUP2 GT ISZERO PUSH2 0x5F6 JUMPI PUSH32 0x4E487B7100000000000000000000000000000000000000000000000000000000 PUSH1 0x0 MSTORE PUSH1 0x21 PUSH1 0x4 MSTORE PUSH1 0x24 PUSH1 0x0 REVERT JUMPDEST EQ ISZERO PUSH2 0x60F JUMPI DUP4 DUP1 PUSH2 0x607 SWAP1 PUSH2 0x28A0 JUMP JUMPDEST SWAP5 POP POP PUSH2 0x702 JUMP JUMPDEST PUSH1 0x4 DUP1 DUP2 GT ISZERO PUSH2 0x648 JUMPI PUSH32 0x4E487B7100000000000000000000000000000000000000000000000000000000 PUSH1 0x0 MSTORE PUSH1 0x21 PUSH1 0x4 MSTORE PUSH1 0x24 PUSH1 0x0 REVERT JUMPDEST PUSH1 0x2 DUP4 DUP4 DUP2 MLOAD DUP2 LT PUSH2 0x683 JUMPI PUSH32 0x4E487B7100000000000000000000000000000000000000000000000000000000 PUSH1 0x0 MSTORE PUSH1 0x32 PUSH1 0x4 MSTORE PUSH1 0x24 PUSH1 0x0 REVERT JUMPDEST PUSH1 0x20 MUL PUSH1 0x20 ADD ADD MLOAD PUSH1 0x40 MLOAD PUSH2 0x698 SWAP2 SWAP1 PUSH2 0x2591 JUMP JUMPDEST SWAP1 DUP2 MSTORE PUSH1 0x20 ADD PUSH1 0x40 MLOAD DUP1 SWAP2 SUB SWAP1 KECCAK256 PUSH1 0x0 SWAP1 SLOAD SWAP1 PUSH2 0x100 EXP SWAP1 DIV PUSH1 0xFF AND PUSH1 0x4 DUP2 GT ISZERO PUSH2 0x6EC JUMPI PUSH32 0x4E487B7100000000000000000000000000000000000000000000000000000000 PUSH1 0x0 MSTORE PUSH1 0x21 PUSH1 0x4 MSTORE PUSH1 0x24 PUSH1 0x0 REVERT JUMPDEST EQ ISZERO PUSH2 0x701 JUMPI DUP3 DUP1 PUSH2 0x6FD SWAP1 PUSH2 0x28A0 JUMP JUMPDEST SWAP4 POP POP JUMPDEST JUMPDEST JUMPDEST DUP1 DUP1 PUSH2 0x70E SWAP1 PUSH2 0x28A0 JUMP JUMPDEST SWAP2 POP POP PUSH2 0x418 JUMP JUMPDEST POP PUSH1 0x1 DUP12 PUSH1 0x40 MLOAD PUSH2 0x727 SWAP2 SWAP1 PUSH2 0x2591 JUMP JUMPDEST SWAP1 DUP2 MSTORE PUSH1 0x20 ADD PUSH1 0x40 MLOAD DUP1 SWAP2 SUB SWAP1 KECCAK256 PUSH1 0x1 ADD DUP1 SLOAD SWAP1 POP DUP5 DUP5 DUP5 SWAP10 POP SWAP10 POP SWAP10 POP SWAP10 POP POP POP POP POP POP POP SWAP2 SWAP4 POP SWAP2 SWAP4 JUMP JUMPDEST PUSH1 0x60 DUP2 PUSH1 0x0 DUP1 ISZERO ISZERO PUSH1 0x0 PUSH1 0x4 DUP2 GT ISZERO PUSH2 0x796 JUMPI PUSH32 0x4E487B7100000000000000000000000000000000000000000000000000000000 PUSH1 0x0 MSTORE PUSH1 0x21 PUSH1 0x4 MSTORE PUSH1 0x24 PUSH1 0x0 REVERT JUMPDEST PUSH1 0x2 DUP5 PUSH1 0x40 MLOAD PUSH2 0x7A6 SWAP2 SWAP1 PUSH2 0x2591 JUMP JUMPDEST SWAP1 DUP2 MSTORE PUSH1 0x20 ADD PUSH1 0x40 MLOAD DUP1 SWAP2 SUB SWAP1 KECCAK256 PUSH1 0x0 SWAP1 SLOAD SWAP1 PUSH2 0x100 EXP SWAP1 DIV PUSH1 0xFF AND PUSH1 0x4 DUP2 GT ISZERO PUSH2 0x7FA JUMPI PUSH32 0x4E487B7100000000000000000000000000000000000000000000000000000000 PUSH1 0x0 MSTORE PUSH1 0x21 PUSH1 0x4 MSTORE PUSH1 0x24 PUSH1 0x0 REVERT JUMPDEST EQ ISZERO ISZERO EQ DUP2 PUSH2 0x83E JUMPI PUSH1 0x40 MLOAD DUP1 PUSH1 0x40 ADD PUSH1 0x40 MSTORE DUP1 PUSH1 0xF DUP2 MSTORE PUSH1 0x20 ADD PUSH32 0x436964206E6F742070726573656E740000000000000000000000000000000000 DUP2 MSTORE POP PUSH2 0x875 JUMP JUMPDEST PUSH1 0x40 MLOAD DUP1 PUSH1 0x40 ADD PUSH1 0x40 MSTORE DUP1 PUSH1 0x13 DUP2 MSTORE PUSH1 0x20 ADD PUSH32 0x43696420616C72656164792070726573656E7400000000000000000000000000 DUP2 MSTORE POP JUMPDEST SWAP1 PUSH2 0x8B6 JUMPI PUSH1 0x40 MLOAD PUSH32 0x8C379A000000000000000000000000000000000000000000000000000000000 DUP2 MSTORE PUSH1 0x4 ADD PUSH2 0x8AD SWAP2 SWAP1 PUSH2 0x2629 JUMP JUMPDEST PUSH1 0x40 MLOAD DUP1 SWAP2 SUB SWAP1 REVERT JUMPDEST POP PUSH1 0x3 DUP5 PUSH1 0x40 MLOAD PUSH2 0x8C7 SWAP2 SWAP1 PUSH2 0x2591 JUMP JUMPDEST SWAP1 DUP2 MSTORE PUSH1 0x20 ADD PUSH1 0x40 MLOAD DUP1 SWAP2 SUB SWAP1 KECCAK256 DUP1 SLOAD DUP1 PUSH1 0x20 MUL PUSH1 0x20 ADD PUSH1 0x40 MLOAD SWAP1 DUP2 ADD PUSH1 0x40 MSTORE DUP1 SWAP3 SWAP2 SWAP1 DUP2 DUP2 MSTORE PUSH1 0x20 ADD PUSH1 0x0 SWAP1 JUMPDEST DUP3 DUP3 LT ISZERO PUSH2 0xA4A JUMPI DUP4 DUP3 SWAP1 PUSH1 0x0 MSTORE PUSH1 0x20 PUSH1 0x0 KECCAK256 SWAP1 PUSH1 0x3 MUL ADD PUSH1 0x40 MLOAD DUP1 PUSH1 0x60 ADD PUSH1 0x40 MSTORE SWAP1 DUP2 PUSH1 0x0 DUP3 ADD SLOAD DUP2 MSTORE PUSH1 0x20 ADD PUSH1 0x1 DUP3 ADD DUP1 SLOAD PUSH2 0x932 SWAP1 PUSH2 0x286E JUMP JUMPDEST DUP1 PUSH1 0x1F ADD PUSH1 0x20 DUP1 SWAP2 DIV MUL PUSH1 0x20 ADD PUSH1 0x40 MLOAD SWAP1 DUP2 ADD PUSH1 0x40 MSTORE DUP1 SWAP3 SWAP2 SWAP1 DUP2 DUP2 MSTORE PUSH1 0x20 ADD DUP3 DUP1 SLOAD PUSH2 0x95E SWAP1 PUSH2 0x286E JUMP JUMPDEST DUP1 ISZERO PUSH2 0x9AB JUMPI DUP1 PUSH1 0x1F LT PUSH2 0x980 JUMPI PUSH2 0x100 DUP1 DUP4 SLOAD DIV MUL DUP4 MSTORE SWAP2 PUSH1 0x20 ADD SWAP2 PUSH2 0x9AB JUMP JUMPDEST DUP3 ADD SWAP2 SWAP1 PUSH1 0x0 MSTORE PUSH1 0x20 PUSH1 0x0 KECCAK256 SWAP1 JUMPDEST DUP2 SLOAD DUP2 MSTORE SWAP1 PUSH1 0x1 ADD SWAP1 PUSH1 0x20 ADD DUP1 DUP4 GT PUSH2 0x98E JUMPI DUP3 SWAP1 SUB PUSH1 0x1F AND DUP3 ADD SWAP2 JUMPDEST POP POP POP POP POP DUP2 MSTORE PUSH1 0x20 ADD PUSH1 0x2 DUP3 ADD PUSH1 0x0 SWAP1 SLOAD SWAP1 PUSH2 0x100 EXP SWAP1 DIV PUSH1 0xFF AND PUSH1 0x4 DUP2 GT ISZERO PUSH2 0x9FF JUMPI PUSH32 0x4E487B7100000000000000000000000000000000000000000000000000000000 PUSH1 0x0 MSTORE PUSH1 0x21 PUSH1 0x4 MSTORE PUSH1 0x24 PUSH1 0x0 REVERT JUMPDEST PUSH1 0x4 DUP2 GT ISZERO PUSH2 0xA37 JUMPI PUSH32 0x4E487B7100000000000000000000000000000000000000000000000000000000 PUSH1 0x0 MSTORE PUSH1 0x21 PUSH1 0x4 MSTORE PUSH1 0x24 PUSH1 0x0 REVERT JUMPDEST DUP2 MSTORE POP POP DUP2 MSTORE PUSH1 0x20 ADD SWAP1 PUSH1 0x1 ADD SWAP1 PUSH2 0x8F5 JUMP JUMPDEST POP POP POP POP SWAP3 POP POP POP SWAP2 SWAP1 POP JUMP JUMPDEST DUP1 PUSH1 0x0 DUP1 ISZERO ISZERO PUSH1 0x1 DUP4 PUSH1 0x40 MLOAD PUSH2 0xA6D SWAP2 SWAP1 PUSH2 0x2591 JUMP JUMPDEST SWAP1 DUP2 MSTORE PUSH1 0x20 ADD PUSH1 0x40 MLOAD DUP1 SWAP2 SUB SWAP1 KECCAK256 PUSH1 0x0 ADD PUSH1 0x0 SWAP1 SLOAD SWAP1 PUSH2 0x100 EXP SWAP1 DIV PUSH1 0xFF AND ISZERO ISZERO EQ DUP2 ISZERO PUSH2 0xAD0 JUMPI PUSH1 0x40 MLOAD DUP1 PUSH1 0x40 ADD PUSH1 0x40 MSTORE DUP1 PUSH1 0x12 DUP2 MSTORE PUSH1 0x20 ADD PUSH32 0x5573657220646F73656E27742065786973740000000000000000000000000000 DUP2 MSTORE POP PUSH2 0xB07 JUMP JUMPDEST PUSH1 0x40 MLOAD DUP1 PUSH1 0x40 ADD PUSH1 0x40 MSTORE DUP1 PUSH1 0x13 DUP2 MSTORE PUSH1 0x20 ADD PUSH32 0x5573657220616C72656164792065786973747300000000000000000000000000 DUP2 MSTORE POP JUMPDEST SWAP1 PUSH2 0xB48 JUMPI PUSH1 0x40 MLOAD PUSH32 0x8C379A000000000000000000000000000000000000000000000000000000000 DUP2 MSTORE PUSH1 0x4 ADD PUSH2 0xB3F SWAP2 SWAP1 PUSH2 0x2629 JUMP JUMPDEST PUSH1 0x40 MLOAD DUP1 SWAP2 SUB SWAP1 REVERT JUMPDEST POP PUSH1 0x60 PUSH1 0x40 MLOAD DUP1 PUSH1 0x60 ADD PUSH1 0x40 MSTORE DUP1 PUSH1 0x1 ISZERO ISZERO DUP2 MSTORE PUSH1 0x20 ADD PUSH2 0x12C PUSH2 0xFFFF AND DUP2 MSTORE PUSH1 0x20 ADD DUP3 DUP2 MSTORE POP PUSH1 0x1 DUP6 PUSH1 0x40 MLOAD PUSH2 0xB7F SWAP2 SWAP1 PUSH2 0x2591 JUMP JUMPDEST SWAP1 DUP2 MSTORE PUSH1 0x20 ADD PUSH1 0x40 MLOAD DUP1 SWAP2 SUB SWAP1 KECCAK256 PUSH1 0x0 DUP3 ADD MLOAD DUP2 PUSH1 0x0 ADD PUSH1 0x0 PUSH2 0x100 EXP DUP2 SLOAD DUP2 PUSH1 0xFF MUL NOT AND SWAP1 DUP4 ISZERO ISZERO MUL OR SWAP1 SSTORE POP PUSH1 0x20 DUP3 ADD MLOAD DUP2 PUSH1 0x0 ADD PUSH1 0x1 PUSH2 0x100 EXP DUP2 SLOAD DUP2 PUSH2 0xFFFF MUL NOT AND SWAP1 DUP4 PUSH2 0xFFFF AND MUL OR SWAP1 SSTORE POP PUSH1 0x40 DUP3 ADD MLOAD DUP2 PUSH1 0x1 ADD SWAP1 DUP1 MLOAD SWAP1 PUSH1 0x20 ADD SWAP1 PUSH2 0xBEC SWAP3 SWAP2 SWAP1 PUSH2 0x1FF8 JUMP JUMPDEST POP SWAP1 POP POP POP POP POP POP JUMP JUMPDEST DUP1 PUSH1 0x0 DUP1 ISZERO ISZERO PUSH1 0x0 PUSH1 0x4 DUP2 GT ISZERO PUSH2 0xC36 JUMPI PUSH32 0x4E487B7100000000000000000000000000000000000000000000000000000000 PUSH1 0x0 MSTORE PUSH1 0x21 PUSH1 0x4 MSTORE PUSH1 0x24 PUSH1 0x0 REVERT JUMPDEST PUSH1 0x2 DUP5 PUSH1 0x40 MLOAD PUSH2 0xC46 SWAP2 SWAP1 PUSH2 0x2591 JUMP JUMPDEST SWAP1 DUP2 MSTORE PUSH1 0x20 ADD PUSH1 0x40 MLOAD DUP1 SWAP2 SUB SWAP1 KECCAK256 PUSH1 0x0 SWAP1 SLOAD SWAP1 PUSH2 0x100 EXP SWAP1 DIV PUSH1 0xFF AND PUSH1 0x4 DUP2 GT ISZERO PUSH2 0xC9A JUMPI PUSH32 0x4E487B7100000000000000000000000000000000000000000000000000000000 PUSH1 0x0 MSTORE PUSH1 0x21 PUSH1 0x4 MSTORE PUSH1 0x24 PUSH1 0x0 REVERT JUMPDEST EQ ISZERO ISZERO EQ DUP2 PUSH2 0xCDE JUMPI PUSH1 0x40 MLOAD DUP1 PUSH1 0x40 ADD PUSH1 0x40 MSTORE DUP1 PUSH1 0xF DUP2 MSTORE PUSH1 0x20 ADD PUSH32 0x436964206E6F742070726573656E740000000000000000000000000000000000 DUP2 MSTORE POP PUSH2 0xD15 JUMP JUMPDEST PUSH1 0x40 MLOAD DUP1 PUSH1 0x40 ADD PUSH1 0x40 MSTORE DUP1 PUSH1 0x13 DUP2 MSTORE PUSH1 0x20 ADD PUSH32 0x43696420616C72656164792070726573656E7400000000000000000000000000 DUP2 MSTORE POP JUMPDEST SWAP1 PUSH2 0xD56 JUMPI PUSH1 0x40 MLOAD PUSH32 0x8C379A000000000000000000000000000000000000000000000000000000000 DUP2 MSTORE PUSH1 0x4 ADD PUSH2 0xD4D SWAP2 SWAP1 PUSH2 0x2629 JUMP JUMPDEST PUSH1 0x40 MLOAD DUP1 SWAP2 SUB SWAP1 REVERT JUMPDEST POP PUSH1 0x3 DUP4 PUSH1 0x40 MLOAD PUSH2 0xD67 SWAP2 SWAP1 PUSH2 0x2591 JUMP JUMPDEST SWAP1 DUP2 MSTORE PUSH1 0x20 ADD PUSH1 0x40 MLOAD DUP1 SWAP2 SUB SWAP1 KECCAK256 PUSH1 0x40 MLOAD DUP1 PUSH1 0x60 ADD PUSH1 0x40 MSTORE DUP1 TIMESTAMP DUP2 MSTORE PUSH1 0x20 ADD DUP7 DUP2 MSTORE PUSH1 0x20 ADD PUSH1 0x4 DUP1 DUP2 GT ISZERO PUSH2 0xDC5 JUMPI PUSH32 0x4E487B7100000000000000000000000000000000000000000000000000000000 PUSH1 0x0 MSTORE PUSH1 0x21 PUSH1 0x4 MSTORE PUSH1 0x24 PUSH1 0x0 REVERT JUMPDEST DUP2 MSTORE POP SWAP1 DUP1 PUSH1 0x1 DUP2 SLOAD ADD DUP1 DUP3 SSTORE DUP1 SWAP2 POP POP PUSH1 0x1 SWAP1 SUB SWAP1 PUSH1 0x0 MSTORE PUSH1 0x20 PUSH1 0x0 KECCAK256 SWAP1 PUSH1 0x3 MUL ADD PUSH1 0x0 SWAP1 SWAP2 SWAP1 SWAP2 SWAP1 SWAP2 POP PUSH1 0x0 DUP3 ADD MLOAD DUP2 PUSH1 0x0 ADD SSTORE PUSH1 0x20 DUP3 ADD MLOAD DUP2 PUSH1 0x1 ADD SWAP1 DUP1 MLOAD SWAP1 PUSH1 0x20 ADD SWAP1 PUSH2 0xE17 SWAP3 SWAP2 SWAP1 PUSH2 0x2058 JUMP JUMPDEST POP PUSH1 0x40 DUP3 ADD MLOAD DUP2 PUSH1 0x2 ADD PUSH1 0x0 PUSH2 0x100 EXP DUP2 SLOAD DUP2 PUSH1 0xFF MUL NOT AND SWAP1 DUP4 PUSH1 0x4 DUP2 GT ISZERO PUSH2 0xE69 JUMPI PUSH32 0x4E487B7100000000000000000000000000000000000000000000000000000000 PUSH1 0x0 MSTORE PUSH1 0x21 PUSH1 0x4 MSTORE PUSH1 0x24 PUSH1 0x0 REVERT JUMPDEST MUL OR SWAP1 SSTORE POP POP POP PUSH2 0xE79 DUP4 PUSH2 0x1ADE JUMP JUMPDEST POP POP POP POP JUMP JUMPDEST PUSH1 0x0 DUP2 PUSH1 0x1 DUP1 ISZERO ISZERO PUSH1 0x1 DUP4 PUSH1 0x40 MLOAD PUSH2 0xE97 SWAP2 SWAP1 PUSH2 0x2591 JUMP JUMPDEST SWAP1 DUP2 MSTORE PUSH1 0x20 ADD PUSH1 0x40 MLOAD DUP1 SWAP2 SUB SWAP1 KECCAK256 PUSH1 0x0 ADD PUSH1 0x0 SWAP1 SLOAD SWAP1 PUSH2 0x100 EXP SWAP1 DIV PUSH1 0xFF AND ISZERO ISZERO EQ DUP2 ISZERO PUSH2 0xEFA JUMPI PUSH1 0x40 MLOAD DUP1 PUSH1 0x40 ADD PUSH1 0x40 MSTORE DUP1 PUSH1 0x12 DUP2 MSTORE PUSH1 0x20 ADD PUSH32 0x5573657220646F73656E27742065786973740000000000000000000000000000 DUP2 MSTORE POP PUSH2 0xF31 JUMP JUMPDEST PUSH1 0x40 MLOAD DUP1 PUSH1 0x40 ADD PUSH1 0x40 MSTORE DUP1 PUSH1 0x13 DUP2 MSTORE PUSH1 0x20 ADD PUSH32 0x5573657220616C72656164792065786973747300000000000000000000000000 DUP2 MSTORE POP JUMPDEST SWAP1 PUSH2 0xF72 JUMPI PUSH1 0x40 MLOAD PUSH32 0x8C379A000000000000000000000000000000000000000000000000000000000 DUP2 MSTORE PUSH1 0x4 ADD PUSH2 0xF69 SWAP2 SWAP1 PUSH2 0x2629 JUMP JUMPDEST PUSH1 0x40 MLOAD DUP1 SWAP2 SUB SWAP1 REVERT JUMPDEST POP PUSH1 0x1 DUP5 PUSH1 0x40 MLOAD PUSH2 0xF83 SWAP2 SWAP1 PUSH2 0x2591 JUMP JUMPDEST SWAP1 DUP2 MSTORE PUSH1 0x20 ADD PUSH1 0x40 MLOAD DUP1 SWAP2 SUB SWAP1 KECCAK256 PUSH1 0x0 ADD PUSH1 0x1 SWAP1 SLOAD SWAP1 PUSH2 0x100 EXP SWAP1 DIV PUSH2 0xFFFF AND SWAP3 POP POP POP SWAP2 SWAP1 POP JUMP JUMPDEST DUP1 PUSH1 0x0 DUP1 ISZERO ISZERO PUSH1 0x0 PUSH1 0x4 DUP2 GT ISZERO PUSH2 0xFEC JUMPI PUSH32 0x4E487B7100000000000000000000000000000000000000000000000000000000 PUSH1 0x0 MSTORE PUSH1 0x21 PUSH1 0x4 MSTORE PUSH1 0x24 PUSH1 0x0 REVERT JUMPDEST PUSH1 0x2 DUP5 PUSH1 0x40 MLOAD PUSH2 0xFFC SWAP2 SWAP1 PUSH2 0x2591 JUMP JUMPDEST SWAP1 DUP2 MSTORE PUSH1 0x20 ADD PUSH1 0x40 MLOAD DUP1 SWAP2 SUB SWAP1 KECCAK256 PUSH1 0x0 SWAP1 SLOAD SWAP1 PUSH2 0x100 EXP SWAP1 DIV PUSH1 0xFF AND PUSH1 0x4 DUP2 GT ISZERO PUSH2 0x1050 JUMPI PUSH32 0x4E487B7100000000000000000000000000000000000000000000000000000000 PUSH1 0x0 MSTORE PUSH1 0x21 PUSH1 0x4 MSTORE PUSH1 0x24 PUSH1 0x0 REVERT JUMPDEST EQ ISZERO ISZERO EQ DUP2 PUSH2 0x1094 JUMPI PUSH1 0x40 MLOAD DUP1 PUSH1 0x40 ADD PUSH1 0x40 MSTORE DUP1 PUSH1 0xF DUP2 MSTORE PUSH1 0x20 ADD PUSH32 0x436964206E6F742070726573656E740000000000000000000000000000000000 DUP2 MSTORE POP PUSH2 0x10CB JUMP JUMPDEST PUSH1 0x40 MLOAD DUP1 PUSH1 0x40 ADD PUSH1 0x40 MSTORE DUP1 PUSH1 0x13 DUP2 MSTORE PUSH1 0x20 ADD PUSH32 0x43696420616C72656164792070726573656E7400000000000000000000000000 DUP2 MSTORE POP JUMPDEST SWAP1 PUSH2 0x110C JUMPI PUSH1 0x40 MLOAD PUSH32 0x8C379A000000000000000000000000000000000000000000000000000000000 DUP2 MSTORE PUSH1 0x4 ADD PUSH2 0x1103 SWAP2 SWAP1 PUSH2 0x2629 JUMP JUMPDEST PUSH1 0x40 MLOAD DUP1 SWAP2 SUB SWAP1 REVERT JUMPDEST POP PUSH1 0x3 DUP4 PUSH1 0x40 MLOAD PUSH2 0x111D SWAP2 SWAP1 PUSH2 0x2591 JUMP JUMPDEST SWAP1 DUP2 MSTORE PUSH1 0x20 ADD PUSH1 0x40 MLOAD DUP1 SWAP2 SUB SWAP1 KECCAK256 PUSH1 0x40 MLOAD DUP1 PUSH1 0x60 ADD PUSH1 0x40 MSTORE DUP1 TIMESTAMP DUP2 MSTORE PUSH1 0x20 ADD DUP7 DUP2 MSTORE PUSH1 0x20 ADD PUSH1 0x2 PUSH1 0x4 DUP2 GT ISZERO PUSH2 0x117C JUMPI PUSH32 0x4E487B7100000000000000000000000000000000000000000000000000000000 PUSH1 0x0 MSTORE PUSH1 0x21 PUSH1 0x4 MSTORE PUSH1 0x24 PUSH1 0x0 REVERT JUMPDEST DUP2 MSTORE POP SWAP1 DUP1 PUSH1 0x1 DUP2 SLOAD ADD DUP1 DUP3 SSTORE DUP1 SWAP2 POP POP PUSH1 0x1 SWAP1 SUB SWAP1 PUSH1 0x0 MSTORE PUSH1 0x20 PUSH1 0x0 KECCAK256 SWAP1 PUSH1 0x3 MUL ADD PUSH1 0x0 SWAP1 SWAP2 SWAP1 SWAP2 SWAP1 SWAP2 POP PUSH1 0x0 DUP3 ADD MLOAD DUP2 PUSH1 0x0 ADD SSTORE PUSH1 0x20 DUP3 ADD MLOAD DUP2 PUSH1 0x1 ADD SWAP1 DUP1 MLOAD SWAP1 PUSH1 0x20 ADD SWAP1 PUSH2 0x11CE SWAP3 SWAP2 SWAP1 PUSH2 0x2058 JUMP JUMPDEST POP PUSH1 0x40 DUP3 ADD MLOAD DUP2 PUSH1 0x2 ADD PUSH1 0x0 PUSH2 0x100 EXP DUP2 SLOAD DUP2 PUSH1 0xFF MUL NOT AND SWAP1 DUP4 PUSH1 0x4 DUP2 GT ISZERO PUSH2 0x1220 JUMPI PUSH32 0x4E487B7100000000000000000000000000000000000000000000000000000000 PUSH1 0x0 MSTORE PUSH1 0x21 PUSH1 0x4 MSTORE PUSH1 0x24 PUSH1 0x0 REVERT JUMPDEST MUL OR SWAP1 SSTORE POP POP POP PUSH2 0x1230 DUP4 PUSH2 0x1ADE JUMP JUMPDEST POP POP POP POP JUMP JUMPDEST PUSH1 0x0 DUP2 PUSH1 0x0 DUP1 ISZERO ISZERO PUSH1 0x0 PUSH1 0x4 DUP2 GT ISZERO PUSH2 0x1278 JUMPI PUSH32 0x4E487B7100000000000000000000000000000000000000000000000000000000 PUSH1 0x0 MSTORE PUSH1 0x21 PUSH1 0x4 MSTORE PUSH1 0x24 PUSH1 0x0 REVERT JUMPDEST PUSH1 0x2 DUP5 PUSH1 0x40 MLOAD PUSH2 0x1288 SWAP2 SWAP1 PUSH2 0x2591 JUMP JUMPDEST SWAP1 DUP2 MSTORE PUSH1 0x20 ADD PUSH1 0x40 MLOAD DUP1 SWAP2 SUB SWAP1 KECCAK256 PUSH1 0x0 SWAP1 SLOAD SWAP1 PUSH2 0x100 EXP SWAP1 DIV PUSH1 0xFF AND PUSH1 0x4 DUP2 GT ISZERO PUSH2 0x12DC JUMPI PUSH32 0x4E487B7100000000000000000000000000000000000000000000000000000000 PUSH1 0x0 MSTORE PUSH1 0x21 PUSH1 0x4 MSTORE PUSH1 0x24 PUSH1 0x0 REVERT JUMPDEST EQ ISZERO ISZERO EQ DUP2 PUSH2 0x1320 JUMPI PUSH1 0x40 MLOAD DUP1 PUSH1 0x40 ADD PUSH1 0x40 MSTORE DUP1 PUSH1 0xF DUP2 MSTORE PUSH1 0x20 ADD PUSH32 0x436964206E6F742070726573656E740000000000000000000000000000000000 DUP2 MSTORE POP PUSH2 0x1357 JUMP JUMPDEST PUSH1 0x40 MLOAD DUP1 PUSH1 0x40 ADD PUSH1 0x40 MSTORE DUP1 PUSH1 0x13 DUP2 MSTORE PUSH1 0x20 ADD PUSH32 0x43696420616C72656164792070726573656E7400000000000000000000000000 DUP2 MSTORE POP JUMPDEST SWAP1 PUSH2 0x1398 JUMPI PUSH1 0x40 MLOAD PUSH32 0x8C379A000000000000000000000000000000000000000000000000000000000 DUP2 MSTORE PUSH1 0x4 ADD PUSH2 0x138F SWAP2 SWAP1 PUSH2 0x2629 JUMP JUMPDEST PUSH1 0x40 MLOAD DUP1 SWAP2 SUB SWAP1 REVERT JUMPDEST POP PUSH1 0x2 DUP5 PUSH1 0x40 MLOAD PUSH2 0x13A9 SWAP2 SWAP1 PUSH2 0x2591 JUMP JUMPDEST SWAP1 DUP2 MSTORE PUSH1 0x20 ADD PUSH1 0x40 MLOAD DUP1 SWAP2 SUB SWAP1 KECCAK256 PUSH1 0x0 SWAP1 SLOAD SWAP1 PUSH2 0x100 EXP SWAP1 DIV PUSH1 0xFF AND SWAP3 POP POP POP SWAP2 SWAP1 POP JUMP JUMPDEST PUSH1 0x60 DUP2 PUSH1 0x1 DUP1 ISZERO ISZERO PUSH1 0x1 DUP4 PUSH1 0x40 MLOAD PUSH2 0x13E6 SWAP2 SWAP1 PUSH2 0x2591 JUMP JUMPDEST SWAP1 DUP2 MSTORE PUSH1 0x20 ADD PUSH1 0x40 MLOAD DUP1 SWAP2 SUB SWAP1 KECCAK256 PUSH1 0x0 ADD PUSH1 0x0 SWAP1 SLOAD SWAP1 PUSH2 0x100 EXP SWAP1 DIV PUSH1 0xFF AND ISZERO ISZERO EQ DUP2 ISZERO PUSH2 0x1449 JUMPI PUSH1 0x40 MLOAD DUP1 PUSH1 0x40 ADD PUSH1 0x40 MSTORE DUP1 PUSH1 0x12 DUP2 MSTORE PUSH1 0x20 ADD PUSH32 0x5573657220646F73656E27742065786973740000000000000000000000000000 DUP2 MSTORE POP PUSH2 0x1480 JUMP JUMPDEST PUSH1 0x40 MLOAD DUP1 PUSH1 0x40 ADD PUSH1 0x40 MSTORE DUP1 PUSH1 0x13 DUP2 MSTORE PUSH1 0x20 ADD PUSH32 0x5573657220616C72656164792065786973747300000000000000000000000000 DUP2 MSTORE POP JUMPDEST SWAP1 PUSH2 0x14C1 JUMPI PUSH1 0x40 MLOAD PUSH32 0x8C379A000000000000000000000000000000000000000000000000000000000 DUP2 MSTORE PUSH1 0x4 ADD PUSH2 0x14B8 SWAP2 SWAP1 PUSH2 0x2629 JUMP JUMPDEST PUSH1 0x40 MLOAD DUP1 SWAP2 SUB SWAP1 REVERT JUMPDEST POP PUSH1 0x1 DUP5 PUSH1 0x40 MLOAD PUSH2 0x14D2 SWAP2 SWAP1 PUSH2 0x2591 JUMP JUMPDEST SWAP1 DUP2 MSTORE PUSH1 0x20 ADD PUSH1 0x40 MLOAD DUP1 SWAP2 SUB SWAP1 KECCAK256 PUSH1 0x1 ADD DUP1 SLOAD DUP1 PUSH1 0x20 MUL PUSH1 0x20 ADD PUSH1 0x40 MLOAD SWAP1 DUP2 ADD PUSH1 0x40 MSTORE DUP1 SWAP3 SWAP2 SWAP1 DUP2 DUP2 MSTORE PUSH1 0x20 ADD PUSH1 0x0 SWAP1 JUMPDEST DUP3 DUP3 LT ISZERO PUSH2 0x15AF JUMPI DUP4 DUP3 SWAP1 PUSH1 0x0 MSTORE PUSH1 0x20 PUSH1 0x0 KECCAK256 ADD DUP1 SLOAD PUSH2 0x1522 SWAP1 PUSH2 0x286E JUMP JUMPDEST DUP1 PUSH1 0x1F ADD PUSH1 0x20 DUP1 SWAP2 DIV MUL PUSH1 0x20 ADD PUSH1 0x40 MLOAD SWAP1 DUP2 ADD PUSH1 0x40 MSTORE DUP1 SWAP3 SWAP2 SWAP1 DUP2 DUP2 MSTORE PUSH1 0x20 ADD DUP3 DUP1 SLOAD PUSH2 0x154E SWAP1 PUSH2 0x286E JUMP JUMPDEST DUP1 ISZERO PUSH2 0x159B JUMPI DUP1 PUSH1 0x1F LT PUSH2 0x1570 JUMPI PUSH2 0x100 DUP1 DUP4 SLOAD DIV MUL DUP4 MSTORE SWAP2 PUSH1 0x20 ADD SWAP2 PUSH2 0x159B JUMP JUMPDEST DUP3 ADD SWAP2 SWAP1 PUSH1 0x0 MSTORE PUSH1 0x20 PUSH1 0x0 KECCAK256 SWAP1 JUMPDEST DUP2 SLOAD DUP2 MSTORE SWAP1 PUSH1 0x1 ADD SWAP1 PUSH1 0x20 ADD DUP1 DUP4 GT PUSH2 0x157E JUMPI DUP3 SWAP1 SUB PUSH1 0x1F AND DUP3 ADD SWAP2 JUMPDEST POP POP POP POP POP DUP2 MSTORE PUSH1 0x20 ADD SWAP1 PUSH1 0x1 ADD SWAP1 PUSH2 0x1503 JUMP JUMPDEST POP POP POP POP SWAP3 POP POP POP SWAP2 SWAP1 POP JUMP JUMPDEST DUP2 PUSH1 0x1 DUP1 ISZERO ISZERO PUSH1 0x1 DUP4 PUSH1 0x40 MLOAD PUSH2 0x15D2 SWAP2 SWAP1 PUSH2 0x2591 JUMP JUMPDEST SWAP1 DUP2 MSTORE PUSH1 0x20 ADD PUSH1 0x40 MLOAD DUP1 SWAP2 SUB SWAP1 KECCAK256 PUSH1 0x0 ADD PUSH1 0x0 SWAP1 SLOAD SWAP1 PUSH2 0x100 EXP SWAP1 DIV PUSH1 0xFF AND ISZERO ISZERO EQ DUP2 ISZERO PUSH2 0x1635 JUMPI PUSH1 0x40 MLOAD DUP1 PUSH1 0x40 ADD PUSH1 0x40 MSTORE DUP1 PUSH1 0x12 DUP2 MSTORE PUSH1 0x20 ADD PUSH32 0x5573657220646F73656E27742065786973740000000000000000000000000000 DUP2 MSTORE POP PUSH2 0x166C JUMP JUMPDEST PUSH1 0x40 MLOAD DUP1 PUSH1 0x40 ADD PUSH1 0x40 MSTORE DUP1 PUSH1 0x13 DUP2 MSTORE PUSH1 0x20 ADD PUSH32 0x5573657220616C72656164792065786973747300000000000000000000000000 DUP2 MSTORE POP JUMPDEST SWAP1 PUSH2 0x16AD JUMPI PUSH1 0x40 MLOAD PUSH32 0x8C379A000000000000000000000000000000000000000000000000000000000 DUP2 MSTORE PUSH1 0x4 ADD PUSH2 0x16A4 SWAP2 SWAP1 PUSH2 0x2629 JUMP JUMPDEST PUSH1 0x40 MLOAD DUP1 SWAP2 SUB SWAP1 REVERT JUMPDEST POP DUP3 PUSH1 0x1 DUP1 ISZERO ISZERO PUSH1 0x0 PUSH1 0x4 DUP2 GT ISZERO PUSH2 0x16EE JUMPI PUSH32 0x4E487B7100000000000000000000000000000000000000000000000000000000 PUSH1 0x0 MSTORE PUSH1 0x21 PUSH1 0x4 MSTORE PUSH1 0x24 PUSH1 0x0 REVERT JUMPDEST PUSH1 0x2 DUP5 PUSH1 0x40 MLOAD PUSH2 0x16FE SWAP2 SWAP1 PUSH2 0x2591 JUMP JUMPDEST SWAP1 DUP2 MSTORE PUSH1 0x20 ADD PUSH1 0x40 MLOAD DUP1 SWAP2 SUB SWAP1 KECCAK256 PUSH1 0x0 SWAP1 SLOAD SWAP1 PUSH2 0x100 EXP SWAP1 DIV PUSH1 0xFF AND PUSH1 0x4 DUP2 GT ISZERO PUSH2 0x1752 JUMPI PUSH32 0x4E487B7100000000000000000000000000000000000000000000000000000000 PUSH1 0x0 MSTORE PUSH1 0x21 PUSH1 0x4 MSTORE PUSH1 0x24 PUSH1 0x0 REVERT JUMPDEST EQ ISZERO ISZERO EQ DUP2 PUSH2 0x1796 JUMPI PUSH1 0x40 MLOAD DUP1 PUSH1 0x40 ADD PUSH1 0x40 MSTORE DUP1 PUSH1 0xF DUP2 MSTORE PUSH1 0x20 ADD PUSH32 0x436964206E6F742070726573656E740000000000000000000000000000000000 DUP2 MSTORE POP PUSH2 0x17CD JUMP JUMPDEST PUSH1 0x40 MLOAD DUP1 PUSH1 0x40 ADD PUSH1 0x40 MSTORE DUP1 PUSH1 0x13 DUP2 MSTORE PUSH1 0x20 ADD PUSH32 0x43696420616C72656164792070726573656E7400000000000000000000000000 DUP2 MSTORE POP JUMPDEST SWAP1 PUSH2 0x180E JUMPI PUSH1 0x40 MLOAD PUSH32 0x8C379A000000000000000000000000000000000000000000000000000000000 DUP2 MSTORE PUSH1 0x4 ADD PUSH2 0x1805 SWAP2 SWAP1 PUSH2 0x2629 JUMP JUMPDEST PUSH1 0x40 MLOAD DUP1 SWAP2 SUB SWAP1 REVERT JUMPDEST POP PUSH1 0x1 DUP7 PUSH1 0x40 MLOAD PUSH2 0x181F SWAP2 SWAP1 PUSH2 0x2591 JUMP JUMPDEST SWAP1 DUP2 MSTORE PUSH1 0x20 ADD PUSH1 0x40 MLOAD DUP1 SWAP2 SUB SWAP1 KECCAK256 PUSH1 0x1 ADD DUP6 SWAP1 DUP1 PUSH1 0x1 DUP2 SLOAD ADD DUP1 DUP3 SSTORE DUP1 SWAP2 POP POP PUSH1 0x1 SWAP1 SUB SWAP1 PUSH1 0x0 MSTORE PUSH1 0x20 PUSH1 0x0 KECCAK256 ADD PUSH1 0x0 SWAP1 SWAP2 SWAP1 SWAP2 SWAP1 SWAP2 POP SWAP1 DUP1 MLOAD SWAP1 PUSH1 0x20 ADD SWAP1 PUSH2 0x1869 SWAP3 SWAP2 SWAP1 PUSH2 0x2058 JUMP JUMPDEST POP PUSH1 0x1 PUSH1 0x2 DUP7 PUSH1 0x40 MLOAD PUSH2 0x187C SWAP2 SWAP1 PUSH2 0x2591 JUMP JUMPDEST SWAP1 DUP2 MSTORE PUSH1 0x20 ADD PUSH1 0x40 MLOAD DUP1 SWAP2 SUB SWAP1 KECCAK256 PUSH1 0x0 PUSH2 0x100 EXP DUP2 SLOAD DUP2 PUSH1 0xFF MUL NOT AND SWAP1 DUP4 PUSH1 0x4 DUP2 GT ISZERO PUSH2 0x18D2 JUMPI PUSH32 0x4E487B7100000000000000000000000000000000000000000000000000000000 PUSH1 0x0 MSTORE PUSH1 0x21 PUSH1 0x4 MSTORE PUSH1 0x24 PUSH1 0x0 REVERT JUMPDEST MUL OR SWAP1 SSTORE POP PUSH1 0x0 PUSH1 0x40 MLOAD DUP1 PUSH1 0x40 ADD PUSH1 0x40 MSTORE DUP1 DUP9 DUP2 MSTORE PUSH1 0x20 ADD DUP8 DUP2 MSTORE POP SWAP1 DUP1 PUSH1 0x1 DUP2 SLOAD ADD DUP1 DUP3 SSTORE DUP1 SWAP2 POP POP PUSH1 0x1 SWAP1 SUB SWAP1 PUSH1 0x0 MSTORE PUSH1 0x20 PUSH1 0x0 KECCAK256 SWAP1 PUSH1 0x2 MUL ADD PUSH1 0x0 SWAP1 SWAP2 SWAP1 SWAP2 SWAP1 SWAP2 POP PUSH1 0x0 DUP3 ADD MLOAD DUP2 PUSH1 0x0 ADD SWAP1 DUP1 MLOAD SWAP1 PUSH1 0x20 ADD SWAP1 PUSH2 0x1933 SWAP3 SWAP2 SWAP1 PUSH2 0x2058 JUMP JUMPDEST POP PUSH1 0x20 DUP3 ADD MLOAD DUP2 PUSH1 0x1 ADD SWAP1 DUP1 MLOAD SWAP1 PUSH1 0x20 ADD SWAP1 PUSH2 0x1950 SWAP3 SWAP2 SWAP1 PUSH2 0x2058 JUMP JUMPDEST POP POP POP POP POP POP POP POP POP JUMP JUMPDEST PUSH1 0x60 PUSH1 0x0 DUP1 SLOAD DUP1 PUSH1 0x20 MUL PUSH1 0x20 ADD PUSH1 0x40 MLOAD SWAP1 DUP2 ADD PUSH1 0x40 MSTORE DUP1 SWAP3 SWAP2 SWAP1 DUP2 DUP2 MSTORE PUSH1 0x20 ADD PUSH1 0x0 SWAP1 JUMPDEST DUP3 DUP3 LT ISZERO PUSH2 0x1AD5 JUMPI DUP4 DUP3 SWAP1 PUSH1 0x0 MSTORE PUSH1 0x20 PUSH1 0x0 KECCAK256 SWAP1 PUSH1 0x2 MUL ADD PUSH1 0x40 MLOAD DUP1 PUSH1 0x40 ADD PUSH1 0x40 MSTORE SWAP1 DUP2 PUSH1 0x0 DUP3 ADD DUP1 SLOAD PUSH2 0x19B2 SWAP1 PUSH2 0x286E JUMP JUMPDEST DUP1 PUSH1 0x1F ADD PUSH1 0x20 DUP1 SWAP2 DIV MUL PUSH1 0x20 ADD PUSH1 0x40 MLOAD SWAP1 DUP2 ADD PUSH1 0x40 MSTORE DUP1 SWAP3 SWAP2 SWAP1 DUP2 DUP2 MSTORE PUSH1 0x20 ADD DUP3 DUP1 SLOAD PUSH2 0x19DE SWAP1 PUSH2 0x286E JUMP JUMPDEST DUP1 ISZERO PUSH2 0x1A2B JUMPI DUP1 PUSH1 0x1F LT PUSH2 0x1A00 JUMPI PUSH2 0x100 DUP1 DUP4 SLOAD DIV MUL DUP4 MSTORE SWAP2 PUSH1 0x20 ADD SWAP2 PUSH2 0x1A2B JUMP JUMPDEST DUP3 ADD SWAP2 SWAP1 PUSH1 0x0 MSTORE PUSH1 0x20 PUSH1 0x0 KECCAK256 SWAP1 JUMPDEST DUP2 SLOAD DUP2 MSTORE SWAP1 PUSH1 0x1 ADD SWAP1 PUSH1 0x20 ADD DUP1 DUP4 GT PUSH2 0x1A0E JUMPI DUP3 SWAP1 SUB PUSH1 0x1F AND DUP3 ADD SWAP2 JUMPDEST POP POP POP POP POP DUP2 MSTORE PUSH1 0x20 ADD PUSH1 0x1 DUP3 ADD DUP1 SLOAD PUSH2 0x1A44 SWAP1 PUSH2 0x286E JUMP JUMPDEST DUP1 PUSH1 0x1F ADD PUSH1 0x20 DUP1 SWAP2 DIV MUL PUSH1 0x20 ADD PUSH1 0x40 MLOAD SWAP1 DUP2 ADD PUSH1 0x40 MSTORE DUP1 SWAP3 SWAP2 SWAP1 DUP2 DUP2 MSTORE PUSH1 0x20 ADD DUP3 DUP1 SLOAD PUSH2 0x1A70 SWAP1 PUSH2 0x286E JUMP JUMPDEST DUP1 ISZERO PUSH2 0x1ABD JUMPI DUP1 PUSH1 0x1F LT PUSH2 0x1A92 JUMPI PUSH2 0x100 DUP1 DUP4 SLOAD DIV MUL DUP4 MSTORE SWAP2 PUSH1 0x20 ADD SWAP2 PUSH2 0x1ABD JUMP JUMPDEST DUP3 ADD SWAP2 SWAP1 PUSH1 0x0 MSTORE PUSH1 0x20 PUSH1 0x0 KECCAK256 SWAP1 JUMPDEST DUP2 SLOAD DUP2 MSTORE SWAP1 PUSH1 0x1 ADD SWAP1 PUSH1 0x20 ADD DUP1 DUP4 GT PUSH2 0x1AA0 JUMPI DUP3 SWAP1 SUB PUSH1 0x1F AND DUP3 ADD SWAP2 JUMPDEST POP POP POP POP POP DUP2 MSTORE POP POP DUP2 MSTORE PUSH1 0x20 ADD SWAP1 PUSH1 0x1 ADD SWAP1 PUSH2 0x197F JUMP JUMPDEST POP POP POP POP SWAP1 POP SWAP1 JUMP JUMPDEST PUSH1 0x0 DUP1 PUSH1 0x0 JUMPDEST PUSH1 0x3 DUP5 PUSH1 0x40 MLOAD PUSH2 0x1AF4 SWAP2 SWAP1 PUSH2 0x2591 JUMP JUMPDEST SWAP1 DUP2 MSTORE PUSH1 0x20 ADD PUSH1 0x40 MLOAD DUP1 SWAP2 SUB SWAP1 KECCAK256 DUP1 SLOAD SWAP1 POP DUP2 LT ISZERO PUSH2 0x1D17 JUMPI PUSH1 0x4 DUP1 DUP2 GT ISZERO PUSH2 0x1B46 JUMPI PUSH32 0x4E487B7100000000000000000000000000000000000000000000000000000000 PUSH1 0x0 MSTORE PUSH1 0x21 PUSH1 0x4 MSTORE PUSH1 0x24 PUSH1 0x0 REVERT JUMPDEST PUSH1 0x3 DUP6 PUSH1 0x40 MLOAD PUSH2 0x1B56 SWAP2 SWAP1 PUSH2 0x2591 JUMP JUMPDEST SWAP1 DUP2 MSTORE PUSH1 0x20 ADD PUSH1 0x40 MLOAD DUP1 SWAP2 SUB SWAP1 KECCAK256 DUP3 DUP2 SLOAD DUP2 LT PUSH2 0x1B9C JUMPI PUSH32 0x4E487B7100000000000000000000000000000000000000000000000000000000 PUSH1 0x0 MSTORE PUSH1 0x32 PUSH1 0x4 MSTORE PUSH1 0x24 PUSH1 0x0 REVERT JUMPDEST SWAP1 PUSH1 0x0 MSTORE PUSH1 0x20 PUSH1 0x0 KECCAK256 SWAP1 PUSH1 0x3 MUL ADD PUSH1 0x2 ADD PUSH1 0x0 SWAP1 SLOAD SWAP1 PUSH2 0x100 EXP SWAP1 DIV PUSH1 0xFF AND PUSH1 0x4 DUP2 GT ISZERO PUSH2 0x1BF3 JUMPI PUSH32 0x4E487B7100000000000000000000000000000000000000000000000000000000 PUSH1 0x0 MSTORE PUSH1 0x21 PUSH1 0x4 MSTORE PUSH1 0x24 PUSH1 0x0 REVERT JUMPDEST EQ ISZERO PUSH2 0x1C08 JUMPI DUP2 DUP1 PUSH2 0x1C04 SWAP1 PUSH2 0x28A0 JUMP JUMPDEST SWAP3 POP POP JUMPDEST PUSH1 0x2 PUSH1 0x4 DUP2 GT ISZERO PUSH2 0x1C42 JUMPI PUSH32 0x4E487B7100000000000000000000000000000000000000000000000000000000 PUSH1 0x0 MSTORE PUSH1 0x21 PUSH1 0x4 MSTORE PUSH1 0x24 PUSH1 0x0 REVERT JUMPDEST PUSH1 0x3 DUP6 PUSH1 0x40 MLOAD PUSH2 0x1C52 SWAP2 SWAP1 PUSH2 0x2591 JUMP JUMPDEST SWAP1 DUP2 MSTORE PUSH1 0x20 ADD PUSH1 0x40 MLOAD DUP1 SWAP2 SUB SWAP1 KECCAK256 DUP3 DUP2 SLOAD DUP2 LT PUSH2 0x1C98 JUMPI PUSH32 0x4E487B7100000000000000000000000000000000000000000000000000000000 PUSH1 0x0 MSTORE PUSH1 0x32 PUSH1 0x4 MSTORE PUSH1 0x24 PUSH1 0x0 REVERT JUMPDEST SWAP1 PUSH1 0x0 MSTORE PUSH1 0x20 PUSH1 0x0 KECCAK256 SWAP1 PUSH1 0x3 MUL ADD PUSH1 0x2 ADD PUSH1 0x0 SWAP1 SLOAD SWAP1 PUSH2 0x100 EXP SWAP1 DIV PUSH1 0xFF AND PUSH1 0x4 DUP2 GT ISZERO PUSH2 0x1CEF JUMPI PUSH32 0x4E487B7100000000000000000000000000000000000000000000000000000000 PUSH1 0x0 MSTORE PUSH1 0x21 PUSH1 0x4 MSTORE PUSH1 0x24 PUSH1 0x0 REVERT JUMPDEST EQ ISZERO PUSH2 0x1D04 JUMPI DUP3 DUP1 PUSH2 0x1D00 SWAP1 PUSH2 0x28A0 JUMP JUMPDEST SWAP4 POP POP JUMPDEST DUP1 DUP1 PUSH2 0x1D0F SWAP1 PUSH2 0x28A0 JUMP JUMPDEST SWAP2 POP POP PUSH2 0x1AE4 JUMP JUMPDEST POP PUSH1 0x3 DUP2 LT PUSH2 0x1D9B JUMPI PUSH1 0x4 PUSH1 0x2 DUP5 PUSH1 0x40 MLOAD PUSH2 0x1D32 SWAP2 SWAP1 PUSH2 0x2591 JUMP JUMPDEST SWAP1 DUP2 MSTORE PUSH1 0x20 ADD PUSH1 0x40 MLOAD DUP1 SWAP2 SUB SWAP1 KECCAK256 PUSH1 0x0 PUSH2 0x100 EXP DUP2 SLOAD DUP2 PUSH1 0xFF MUL NOT AND SWAP1 DUP4 PUSH1 0x4 DUP2 GT ISZERO PUSH2 0x1D88 JUMPI PUSH32 0x4E487B7100000000000000000000000000000000000000000000000000000000 PUSH1 0x0 MSTORE PUSH1 0x21 PUSH1 0x4 MSTORE PUSH1 0x24 PUSH1 0x0 REVERT JUMPDEST MUL OR SWAP1 SSTORE POP PUSH2 0x1D96 DUP4 PUSH2 0x1E91 JUMP JUMPDEST PUSH2 0x1E8C JUMP JUMPDEST PUSH1 0x3 DUP3 LT PUSH2 0x1E1D JUMPI PUSH1 0x2 DUP1 DUP5 PUSH1 0x40 MLOAD PUSH2 0x1DB4 SWAP2 SWAP1 PUSH2 0x2591 JUMP JUMPDEST SWAP1 DUP2 MSTORE PUSH1 0x20 ADD PUSH1 0x40 MLOAD DUP1 SWAP2 SUB SWAP1 KECCAK256 PUSH1 0x0 PUSH2 0x100 EXP DUP2 SLOAD DUP2 PUSH1 0xFF MUL NOT AND SWAP1 DUP4 PUSH1 0x4 DUP2 GT ISZERO PUSH2 0x1E0A JUMPI PUSH32 0x4E487B7100000000000000000000000000000000000000000000000000000000 PUSH1 0x0 MSTORE PUSH1 0x21 PUSH1 0x4 MSTORE PUSH1 0x24 PUSH1 0x0 REVERT JUMPDEST MUL OR SWAP1 SSTORE POP PUSH2 0x1E18 DUP4 PUSH2 0x1E91 JUMP JUMPDEST PUSH2 0x1E8B JUMP JUMPDEST PUSH1 0x3 PUSH1 0x2 DUP5 PUSH1 0x40 MLOAD PUSH2 0x1E2F SWAP2 SWAP1 PUSH2 0x2591 JUMP JUMPDEST SWAP1 DUP2 MSTORE PUSH1 0x20 ADD PUSH1 0x40 MLOAD DUP1 SWAP2 SUB SWAP1 KECCAK256 PUSH1 0x0 PUSH2 0x100 EXP DUP2 SLOAD DUP2 PUSH1 0xFF MUL NOT AND SWAP1 DUP4 PUSH1 0x4 DUP2 GT ISZERO PUSH2 0x1E85 JUMPI PUSH32 0x4E487B7100000000000000000000000000000000000000000000000000000000 PUSH1 0x0 MSTORE PUSH1 0x21 PUSH1 0x4 MSTORE PUSH1 0x24 PUSH1 0x0 REVERT JUMPDEST MUL OR SWAP1 SSTORE POP JUMPDEST JUMPDEST POP POP POP JUMP JUMPDEST PUSH1 0x0 JUMPDEST PUSH1 0x0 DUP1 SLOAD SWAP1 POP DUP2 LT ISZERO PUSH2 0x1F9B JUMPI PUSH2 0x1F7E PUSH1 0x0 DUP3 DUP2 SLOAD DUP2 LT PUSH2 0x1EDE JUMPI PUSH32 0x4E487B7100000000000000000000000000000000000000000000000000000000 PUSH1 0x0 MSTORE PUSH1 0x32 PUSH1 0x4 MSTORE PUSH1 0x24 PUSH1 0x0 REVERT JUMPDEST SWAP1 PUSH1 0x0 MSTORE PUSH1 0x20 PUSH1 0x0 KECCAK256 SWAP1 PUSH1 0x2 MUL ADD PUSH1 0x1 ADD DUP1 SLOAD PUSH2 0x1EFA SWAP1 PUSH2 0x286E JUMP JUMPDEST DUP1 PUSH1 0x1F ADD PUSH1 0x20 DUP1 SWAP2 DIV MUL PUSH1 0x20 ADD PUSH1 0x40 MLOAD SWAP1 DUP2 ADD PUSH1 0x40 MSTORE DUP1 SWAP3 SWAP2 SWAP1 DUP2 DUP2 MSTORE PUSH1 0x20 ADD DUP3 DUP1 SLOAD PUSH2 0x1F26 SWAP1 PUSH2 0x286E JUMP JUMPDEST DUP1 ISZERO PUSH2 0x1F73 JUMPI DUP1 PUSH1 0x1F LT PUSH2 0x1F48 JUMPI PUSH2 0x100 DUP1 DUP4 SLOAD DIV MUL DUP4 MSTORE SWAP2 PUSH1 0x20 ADD SWAP2 PUSH2 0x1F73 JUMP JUMPDEST DUP3 ADD SWAP2 SWAP1 PUSH1 0x0 MSTORE PUSH1 0x20 PUSH1 0x0 KECCAK256 SWAP1 JUMPDEST DUP2 SLOAD DUP2 MSTORE SWAP1 PUSH1 0x1 ADD SWAP1 PUSH1 0x20 ADD DUP1 DUP4 GT PUSH2 0x1F56 JUMPI DUP3 SWAP1 SUB PUSH1 0x1F AND DUP3 ADD SWAP2 JUMPDEST POP POP POP POP POP DUP4 PUSH2 0x1F9F JUMP JUMPDEST ISZERO PUSH2 0x1F88 JUMPI PUSH2 0x1F9B JUMP JUMPDEST DUP1 DUP1 PUSH2 0x1F93 SWAP1 PUSH2 0x28A0 JUMP JUMPDEST SWAP2 POP POP PUSH2 0x1E94 JUMP JUMPDEST POP POP JUMP JUMPDEST PUSH1 0x0 DUP2 PUSH1 0x40 MLOAD PUSH1 0x20 ADD PUSH2 0x1FB2 SWAP2 SWAP1 PUSH2 0x2591 JUMP JUMPDEST PUSH1 0x40 MLOAD PUSH1 0x20 DUP2 DUP4 SUB SUB DUP2 MSTORE SWAP1 PUSH1 0x40 MSTORE DUP1 MLOAD SWAP1 PUSH1 0x20 ADD KECCAK256 DUP4 PUSH1 0x40 MLOAD PUSH1 0x20 ADD PUSH2 0x1FD9 SWAP2 SWAP1 PUSH2 0x2591 JUMP JUMPDEST PUSH1 0x40 MLOAD PUSH1 0x20 DUP2 DUP4 SUB SUB DUP2 MSTORE SWAP1 PUSH1 0x40 MSTORE DUP1 MLOAD SWAP1 PUSH1 0x20 ADD KECCAK256 EQ SWAP1 POP SWAP3 SWAP2 POP POP JUMP JUMPDEST DUP3 DUP1 SLOAD DUP3 DUP3 SSTORE SWAP1 PUSH1 0x0 MSTORE PUSH1 0x20 PUSH1 0x0 KECCAK256 SWAP1 DUP2 ADD SWAP3 DUP3 ISZERO PUSH2 0x2047 JUMPI SWAP2 PUSH1 0x20 MUL DUP3 ADD JUMPDEST DUP3 DUP2 GT ISZERO PUSH2 0x2046 JUMPI DUP3 MLOAD DUP3 SWAP1 DUP1 MLOAD SWAP1 PUSH1 0x20 ADD SWAP1 PUSH2 0x2036 SWAP3 SWAP2 SWAP1 PUSH2 0x2058 JUMP JUMPDEST POP SWAP2 PUSH1 0x20 ADD SWAP2 SWAP1 PUSH1 0x1 ADD SWAP1 PUSH2 0x2018 JUMP JUMPDEST JUMPDEST POP SWAP1 POP PUSH2 0x2054 SWAP2 SWAP1 PUSH2 0x20DE JUMP JUMPDEST POP SWAP1 JUMP JUMPDEST DUP3 DUP1 SLOAD PUSH2 0x2064 SWAP1 PUSH2 0x286E JUMP JUMPDEST SWAP1 PUSH1 0x0 MSTORE PUSH1 0x20 PUSH1 0x0 KECCAK256 SWAP1 PUSH1 0x1F ADD PUSH1 0x20 SWAP1 DIV DUP2 ADD SWAP3 DUP3 PUSH2 0x2086 JUMPI PUSH1 0x0 DUP6 SSTORE PUSH2 0x20CD JUMP JUMPDEST DUP3 PUSH1 0x1F LT PUSH2 0x209F JUMPI DUP1 MLOAD PUSH1 0xFF NOT AND DUP4 DUP1 ADD OR DUP6 SSTORE PUSH2 0x20CD JUMP JUMPDEST DUP3 DUP1 ADD PUSH1 0x1 ADD DUP6 SSTORE DUP3 ISZERO PUSH2 0x20CD JUMPI SWAP2 DUP3 ADD JUMPDEST DUP3 DUP2 GT ISZERO PUSH2 0x20CC JUMPI DUP3 MLOAD DUP3 SSTORE SWAP2 PUSH1 0x20 ADD SWAP2 SWAP1 PUSH1 0x1 ADD SWAP1 PUSH2 0x20B1 JUMP JUMPDEST JUMPDEST POP SWAP1 POP PUSH2 0x20DA SWAP2 SWAP1 PUSH2 0x2102 JUMP JUMPDEST POP SWAP1 JUMP JUMPDEST JUMPDEST DUP1 DUP3 GT ISZERO PUSH2 0x20FE JUMPI PUSH1 0x0 DUP2 DUP2 PUSH2 0x20F5 SWAP2 SWAP1 PUSH2 0x211F JUMP JUMPDEST POP PUSH1 0x1 ADD PUSH2 0x20DF JUMP JUMPDEST POP SWAP1 JUMP JUMPDEST JUMPDEST DUP1 DUP3 GT ISZERO PUSH2 0x211B JUMPI PUSH1 0x0 DUP2 PUSH1 0x0 SWAP1 SSTORE POP PUSH1 0x1 ADD PUSH2 0x2103 JUMP JUMPDEST POP SWAP1 JUMP JUMPDEST POP DUP1 SLOAD PUSH2 0x212B SWAP1 PUSH2 0x286E JUMP JUMPDEST PUSH1 0x0 DUP3 SSTORE DUP1 PUSH1 0x1F LT PUSH2 0x213D JUMPI POP PUSH2 0x215C JUMP JUMPDEST PUSH1 0x1F ADD PUSH1 0x20 SWAP1 DIV SWAP1 PUSH1 0x0 MSTORE PUSH1 0x20 PUSH1 0x0 KECCAK256 SWAP1 DUP2 ADD SWAP1 PUSH2 0x215B SWAP2 SWAP1 PUSH2 0x2102 JUMP JUMPDEST JUMPDEST POP JUMP JUMPDEST PUSH1 0x0 PUSH2 0x2172 PUSH2 0x216D DUP5 PUSH2 0x26DC JUMP JUMPDEST PUSH2 0x26AB JUMP JUMPDEST SWAP1 POP DUP3 DUP2 MSTORE PUSH1 0x20 DUP2 ADD DUP5 DUP5 DUP5 ADD GT ISZERO PUSH2 0x218A JUMPI PUSH1 0x0 DUP1 REVERT JUMPDEST PUSH2 0x2195 DUP5 DUP3 DUP6 PUSH2 0x282C JUMP JUMPDEST POP SWAP4 SWAP3 POP POP POP JUMP JUMPDEST PUSH1 0x0 DUP3 PUSH1 0x1F DUP4 ADD SLT PUSH2 0x21AE JUMPI PUSH1 0x0 DUP1 REVERT JUMPDEST DUP2 CALLDATALOAD PUSH2 0x21BE DUP5 DUP3 PUSH1 0x20 DUP7 ADD PUSH2 0x215F JUMP JUMPDEST SWAP2 POP POP SWAP3 SWAP2 POP POP JUMP JUMPDEST PUSH1 0x0 PUSH1 0x20 DUP3 DUP5 SUB SLT ISZERO PUSH2 0x21D9 JUMPI PUSH1 0x0 DUP1 REVERT JUMPDEST PUSH1 0x0 DUP3 ADD CALLDATALOAD PUSH8 0xFFFFFFFFFFFFFFFF DUP2 GT ISZERO PUSH2 0x21F3 JUMPI PUSH1 0x0 DUP1 REVERT JUMPDEST PUSH2 0x21FF DUP5 DUP3 DUP6 ADD PUSH2 0x219D JUMP JUMPDEST SWAP2 POP POP SWAP3 SWAP2 POP POP JUMP JUMPDEST PUSH1 0x0 DUP1 PUSH1 0x40 DUP4 DUP6 SUB SLT ISZERO PUSH2 0x221B JUMPI PUSH1 0x0 DUP1 REVERT JUMPDEST PUSH1 0x0 DUP4 ADD CALLDATALOAD PUSH8 0xFFFFFFFFFFFFFFFF DUP2 GT ISZERO PUSH2 0x2235 JUMPI PUSH1 0x0 DUP1 REVERT JUMPDEST PUSH2 0x2241 DUP6 DUP3 DUP7 ADD PUSH2 0x219D JUMP JUMPDEST SWAP3 POP POP PUSH1 0x20 DUP4 ADD CALLDATALOAD PUSH8 0xFFFFFFFFFFFFFFFF DUP2 GT ISZERO PUSH2 0x225E JUMPI PUSH1 0x0 DUP1 REVERT JUMPDEST PUSH2 0x226A DUP6 DUP3 DUP7 ADD PUSH2 0x219D JUMP JUMPDEST SWAP2 POP POP SWAP3 POP SWAP3 SWAP1 POP JUMP JUMPDEST PUSH1 0x0 PUSH2 0x2280 DUP4 DUP4 PUSH2 0x242D JUMP JUMPDEST SWAP1 POP SWAP3 SWAP2 POP POP JUMP JUMPDEST PUSH1 0x0 PUSH2 0x2294 DUP4 DUP4 PUSH2 0x24D0 JUMP JUMPDEST SWAP1 POP SWAP3 SWAP2 POP POP JUMP JUMPDEST PUSH1 0x0 PUSH2 0x22A8 DUP4 DUP4 PUSH2 0x2514 JUMP JUMPDEST SWAP1 POP SWAP3 SWAP2 POP POP JUMP JUMPDEST PUSH1 0x0 PUSH2 0x22BB DUP3 PUSH2 0x273C JUMP JUMPDEST PUSH2 0x22C5 DUP2 DUP6 PUSH2 0x278F JUMP JUMPDEST SWAP4 POP DUP4 PUSH1 0x20 DUP3 MUL DUP6 ADD PUSH2 0x22D7 DUP6 PUSH2 0x270C JUMP JUMPDEST DUP1 PUSH1 0x0 JUMPDEST DUP6 DUP2 LT ISZERO PUSH2 0x2313 JUMPI DUP5 DUP5 SUB DUP10 MSTORE DUP2 MLOAD PUSH2 0x22F4 DUP6 DUP3 PUSH2 0x2274 JUMP JUMPDEST SWAP5 POP PUSH2 0x22FF DUP4 PUSH2 0x2768 JUMP JUMPDEST SWAP3 POP PUSH1 0x20 DUP11 ADD SWAP10 POP POP PUSH1 0x1 DUP2 ADD SWAP1 POP PUSH2 0x22DB JUMP JUMPDEST POP DUP3 SWAP8 POP DUP8 SWAP6 POP POP POP POP POP POP SWAP3 SWAP2 POP POP JUMP JUMPDEST PUSH1 0x0 PUSH2 0x2330 DUP3 PUSH2 0x2747 JUMP JUMPDEST PUSH2 0x233A DUP2 DUP6 PUSH2 0x27A0 JUMP JUMPDEST SWAP4 POP DUP4 PUSH1 0x20 DUP3 MUL DUP6 ADD PUSH2 0x234C DUP6 PUSH2 0x271C JUMP JUMPDEST DUP1 PUSH1 0x0 JUMPDEST DUP6 DUP2 LT ISZERO PUSH2 0x2388 JUMPI DUP5 DUP5 SUB DUP10 MSTORE DUP2 MLOAD PUSH2 0x2369 DUP6 DUP3 PUSH2 0x2288 JUMP JUMPDEST SWAP5 POP PUSH2 0x2374 DUP4 PUSH2 0x2775 JUMP JUMPDEST SWAP3 POP PUSH1 0x20 DUP11 ADD SWAP10 POP POP PUSH1 0x1 DUP2 ADD SWAP1 POP PUSH2 0x2350 JUMP JUMPDEST POP DUP3 SWAP8 POP DUP8 SWAP6 POP POP POP POP POP POP SWAP3 SWAP2 POP POP JUMP JUMPDEST PUSH1 0x0 PUSH2 0x23A5 DUP3 PUSH2 0x2752 JUMP JUMPDEST PUSH2 0x23AF DUP2 DUP6 PUSH2 0x27B1 JUMP JUMPDEST SWAP4 POP DUP4 PUSH1 0x20 DUP3 MUL DUP6 ADD PUSH2 0x23C1 DUP6 PUSH2 0x272C JUMP JUMPDEST DUP1 PUSH1 0x0 JUMPDEST DUP6 DUP2 LT ISZERO PUSH2 0x23FD JUMPI DUP5 DUP5 SUB DUP10 MSTORE DUP2 MLOAD PUSH2 0x23DE DUP6 DUP3 PUSH2 0x229C JUMP JUMPDEST SWAP5 POP PUSH2 0x23E9 DUP4 PUSH2 0x2782 JUMP JUMPDEST SWAP3 POP PUSH1 0x20 DUP11 ADD SWAP10 POP POP PUSH1 0x1 DUP2 ADD SWAP1 POP PUSH2 0x23C5 JUMP JUMPDEST POP DUP3 SWAP8 POP DUP8 SWAP6 POP POP POP POP POP POP SWAP3 SWAP2 POP POP JUMP JUMPDEST PUSH2 0x2418 DUP2 PUSH2 0x281A JUMP JUMPDEST DUP3 MSTORE POP POP JUMP JUMPDEST PUSH2 0x2427 DUP2 PUSH2 0x281A JUMP JUMPDEST DUP3 MSTORE POP POP JUMP JUMPDEST PUSH1 0x0 PUSH2 0x2438 DUP3 PUSH2 0x275D JUMP JUMPDEST PUSH2 0x2442 DUP2 DUP6 PUSH2 0x27C2 JUMP JUMPDEST SWAP4 POP PUSH2 0x2452 DUP2 DUP6 PUSH1 0x20 DUP7 ADD PUSH2 0x283B JUMP JUMPDEST PUSH2 0x245B DUP2 PUSH2 0x29A5 JUMP JUMPDEST DUP5 ADD SWAP2 POP POP SWAP3 SWAP2 POP POP JUMP JUMPDEST PUSH1 0x0 PUSH2 0x2471 DUP3 PUSH2 0x275D JUMP JUMPDEST PUSH2 0x247B DUP2 DUP6 PUSH2 0x27D3 JUMP JUMPDEST SWAP4 POP PUSH2 0x248B DUP2 DUP6 PUSH1 0x20 DUP7 ADD PUSH2 0x283B JUMP JUMPDEST PUSH2 0x2494 DUP2 PUSH2 0x29A5 JUMP JUMPDEST DUP5 ADD SWAP2 POP POP SWAP3 SWAP2 POP POP JUMP JUMPDEST PUSH1 0x0 PUSH2 0x24AA DUP3 PUSH2 0x275D JUMP JUMPDEST PUSH2 0x24B4 DUP2 DUP6 PUSH2 0x27E4 JUMP JUMPDEST SWAP4 POP PUSH2 0x24C4 DUP2 DUP6 PUSH1 0x20 DUP7 ADD PUSH2 0x283B JUMP JUMPDEST DUP1 DUP5 ADD SWAP2 POP POP SWAP3 SWAP2 POP POP JUMP JUMPDEST PUSH1 0x0 PUSH1 0x40 DUP4 ADD PUSH1 0x0 DUP4 ADD MLOAD DUP5 DUP3 SUB PUSH1 0x0 DUP7 ADD MSTORE PUSH2 0x24ED DUP3 DUP3 PUSH2 0x242D JUMP JUMPDEST SWAP2 POP POP PUSH1 0x20 DUP4 ADD MLOAD DUP5 DUP3 SUB PUSH1 0x20 DUP7 ADD MSTORE PUSH2 0x2507 DUP3 DUP3 PUSH2 0x242D JUMP JUMPDEST SWAP2 POP POP DUP1 SWAP2 POP POP SWAP3 SWAP2 POP POP JUMP JUMPDEST PUSH1 0x0 PUSH1 0x60 DUP4 ADD PUSH1 0x0 DUP4 ADD MLOAD PUSH2 0x252C PUSH1 0x0 DUP7 ADD DUP3 PUSH2 0x2573 JUMP JUMPDEST POP PUSH1 0x20 DUP4 ADD MLOAD DUP5 DUP3 SUB PUSH1 0x20 DUP7 ADD MSTORE PUSH2 0x2544 DUP3 DUP3 PUSH2 0x242D JUMP JUMPDEST SWAP2 POP POP PUSH1 0x40 DUP4 ADD MLOAD PUSH2 0x2559 PUSH1 0x40 DUP7 ADD DUP3 PUSH2 0x240F JUMP JUMPDEST POP DUP1 SWAP2 POP POP SWAP3 SWAP2 POP POP JUMP JUMPDEST PUSH2 0x256D DUP2 PUSH2 0x2802 JUMP JUMPDEST DUP3 MSTORE POP POP JUMP JUMPDEST PUSH2 0x257C DUP2 PUSH2 0x2810 JUMP JUMPDEST DUP3 MSTORE POP POP JUMP JUMPDEST PUSH2 0x258B DUP2 PUSH2 0x2810 JUMP JUMPDEST DUP3 MSTORE POP POP JUMP JUMPDEST PUSH1 0x0 PUSH2 0x259D DUP3 DUP5 PUSH2 0x249F JUMP JUMPDEST SWAP2 POP DUP2 SWAP1 POP SWAP3 SWAP2 POP POP JUMP JUMPDEST PUSH1 0x0 PUSH1 0x20 DUP3 ADD SWAP1 POP DUP2 DUP2 SUB PUSH1 0x0 DUP4 ADD MSTORE PUSH2 0x25C2 DUP2 DUP5 PUSH2 0x22B0 JUMP JUMPDEST SWAP1 POP SWAP3 SWAP2 POP POP JUMP JUMPDEST PUSH1 0x0 PUSH1 0x20 DUP3 ADD SWAP1 POP DUP2 DUP2 SUB PUSH1 0x0 DUP4 ADD MSTORE PUSH2 0x25E4 DUP2 DUP5 PUSH2 0x2325 JUMP JUMPDEST SWAP1 POP SWAP3 SWAP2 POP POP JUMP JUMPDEST PUSH1 0x0 PUSH1 0x20 DUP3 ADD SWAP1 POP DUP2 DUP2 SUB PUSH1 0x0 DUP4 ADD MSTORE PUSH2 0x2606 DUP2 DUP5 PUSH2 0x239A JUMP JUMPDEST SWAP1 POP SWAP3 SWAP2 POP POP JUMP JUMPDEST PUSH1 0x0 PUSH1 0x20 DUP3 ADD SWAP1 POP PUSH2 0x2623 PUSH1 0x0 DUP4 ADD DUP5 PUSH2 0x241E JUMP JUMPDEST SWAP3 SWAP2 POP POP JUMP JUMPDEST PUSH1 0x0 PUSH1 0x20 DUP3 ADD SWAP1 POP DUP2 DUP2 SUB PUSH1 0x0 DUP4 ADD MSTORE PUSH2 0x2643 DUP2 DUP5 PUSH2 0x2466 JUMP JUMPDEST SWAP1 POP SWAP3 SWAP2 POP POP JUMP JUMPDEST PUSH1 0x0 PUSH1 0x20 DUP3 ADD SWAP1 POP PUSH2 0x2660 PUSH1 0x0 DUP4 ADD DUP5 PUSH2 0x2564 JUMP JUMPDEST SWAP3 SWAP2 POP POP JUMP JUMPDEST PUSH1 0x0 PUSH1 0x80 DUP3 ADD SWAP1 POP PUSH2 0x267B PUSH1 0x0 DUP4 ADD DUP8 PUSH2 0x2582 JUMP JUMPDEST PUSH2 0x2688 PUSH1 0x20 DUP4 ADD DUP7 PUSH2 0x2582 JUMP JUMPDEST PUSH2 0x2695 PUSH1 0x40 DUP4 ADD DUP6 PUSH2 0x2582 JUMP JUMPDEST PUSH2 0x26A2 PUSH1 0x60 DUP4 ADD DUP5 PUSH2 0x2582 JUMP JUMPDEST SWAP6 SWAP5 POP POP POP POP POP JUMP JUMPDEST PUSH1 0x0 PUSH1 0x40 MLOAD SWAP1 POP DUP2 DUP2 ADD DUP2 DUP2 LT PUSH8 0xFFFFFFFFFFFFFFFF DUP3 GT OR ISZERO PUSH2 0x26D2 JUMPI PUSH2 0x26D1 PUSH2 0x2976 JUMP JUMPDEST JUMPDEST DUP1 PUSH1 0x40 MSTORE POP SWAP2 SWAP1 POP JUMP JUMPDEST PUSH1 0x0 PUSH8 0xFFFFFFFFFFFFFFFF DUP3 GT ISZERO PUSH2 0x26F7 JUMPI PUSH2 0x26F6 PUSH2 0x2976 JUMP JUMPDEST JUMPDEST PUSH1 0x1F NOT PUSH1 0x1F DUP4 ADD AND SWAP1 POP PUSH1 0x20 DUP2 ADD SWAP1 POP SWAP2 SWAP1 POP JUMP JUMPDEST PUSH1 0x0 DUP2 SWAP1 POP PUSH1 0x20 DUP3 ADD SWAP1 POP SWAP2 SWAP1 POP JUMP JUMPDEST PUSH1 0x0 DUP2 SWAP1 POP PUSH1 0x20 DUP3 ADD SWAP1 POP SWAP2 SWAP1 POP JUMP JUMPDEST PUSH1 0x0 DUP2 SWAP1 POP PUSH1 0x20 DUP3 ADD SWAP1 POP SWAP2 SWAP1 POP JUMP JUMPDEST PUSH1 0x0 DUP2 MLOAD SWAP1 POP SWAP2 SWAP1 POP JUMP JUMPDEST PUSH1 0x0 DUP2 MLOAD SWAP1 POP SWAP2 SWAP1 POP JUMP JUMPDEST PUSH1 0x0 DUP2 MLOAD SWAP1 POP SWAP2 SWAP1 POP JUMP JUMPDEST PUSH1 0x0 DUP2 MLOAD SWAP1 POP SWAP2 SWAP1 POP JUMP JUMPDEST PUSH1 0x0 PUSH1 0x20 DUP3 ADD SWAP1 POP SWAP2 SWAP1 POP JUMP JUMPDEST PUSH1 0x0 PUSH1 0x20 DUP3 ADD SWAP1 POP SWAP2 SWAP1 POP JUMP JUMPDEST PUSH1 0x0 PUSH1 0x20 DUP3 ADD SWAP1 POP SWAP2 SWAP1 POP JUMP JUMPDEST PUSH1 0x0 DUP3 DUP3 MSTORE PUSH1 0x20 DUP3 ADD SWAP1 POP SWAP3 SWAP2 POP POP JUMP JUMPDEST PUSH1 0x0 DUP3 DUP3 MSTORE PUSH1 0x20 DUP3 ADD SWAP1 POP SWAP3 SWAP2 POP POP JUMP JUMPDEST PUSH1 0x0 DUP3 DUP3 MSTORE PUSH1 0x20 DUP3 ADD SWAP1 POP SWAP3 SWAP2 POP POP JUMP JUMPDEST PUSH1 0x0 DUP3 DUP3 MSTORE PUSH1 0x20 DUP3 ADD SWAP1 POP SWAP3 SWAP2 POP POP JUMP JUMPDEST PUSH1 0x0 DUP3 DUP3 MSTORE PUSH1 0x20 DUP3 ADD SWAP1 POP SWAP3 SWAP2 POP POP JUMP JUMPDEST PUSH1 0x0 DUP2 SWAP1 POP SWAP3 SWAP2 POP POP JUMP JUMPDEST PUSH1 0x0 DUP2 SWAP1 POP PUSH2 0x27FD DUP3 PUSH2 0x29B6 JUMP JUMPDEST SWAP2 SWAP1 POP JUMP JUMPDEST PUSH1 0x0 PUSH2 0xFFFF DUP3 AND SWAP1 POP SWAP2 SWAP1 POP JUMP JUMPDEST PUSH1 0x0 DUP2 SWAP1 POP SWAP2 SWAP1 POP JUMP JUMPDEST PUSH1 0x0 PUSH2 0x2825 DUP3 PUSH2 0x27EF JUMP JUMPDEST SWAP1 POP SWAP2 SWAP1 POP JUMP JUMPDEST DUP3 DUP2 DUP4 CALLDATACOPY PUSH1 0x0 DUP4 DUP4 ADD MSTORE POP POP POP JUMP JUMPDEST PUSH1 0x0 JUMPDEST DUP4 DUP2 LT ISZERO PUSH2 0x2859 JUMPI DUP1 DUP3 ADD MLOAD DUP2 DUP5 ADD MSTORE PUSH1 0x20 DUP2 ADD SWAP1 POP PUSH2 0x283E JUMP JUMPDEST DUP4 DUP2 GT ISZERO PUSH2 0x2868 JUMPI PUSH1 0x0 DUP5 DUP5 ADD MSTORE JUMPDEST POP POP POP POP JUMP JUMPDEST PUSH1 0x0 PUSH1 0x2 DUP3 DIV SWAP1 POP PUSH1 0x1 DUP3 AND DUP1 PUSH2 0x2886 JUMPI PUSH1 0x7F DUP3 AND SWAP2 POP JUMPDEST PUSH1 0x20 DUP3 LT DUP2 EQ ISZERO PUSH2 0x289A JUMPI PUSH2 0x2899 PUSH2 0x2947 JUMP JUMPDEST JUMPDEST POP SWAP2 SWAP1 POP JUMP JUMPDEST PUSH1 0x0 PUSH2 0x28AB DUP3 PUSH2 0x2810 JUMP JUMPDEST SWAP2 POP PUSH32 0xFFFFFFFFFFFFFFFFFFFFFFFFFFFFFFFFFFFFFFFFFFFFFFFFFFFFFFFFFFFFFFFF DUP3 EQ ISZERO PUSH2 0x28DE JUMPI PUSH2 0x28DD PUSH2 0x28E9 JUMP JUMPDEST JUMPDEST PUSH1 0x1 DUP3 ADD SWAP1 POP SWAP2 SWAP1 POP JUMP JUMPDEST PUSH32 0x4E487B7100000000000000000000000000000000000000000000000000000000 PUSH1 0x0 MSTORE PUSH1 0x11 PUSH1 0x4 MSTORE PUSH1 0x24 PUSH1 0x0 REVERT JUMPDEST PUSH32 0x4E487B7100000000000000000000000000000000000000000000000000000000 PUSH1 0x0 MSTORE PUSH1 0x21 PUSH1 0x4 MSTORE PUSH1 0x24 PUSH1 0x0 REVERT JUMPDEST PUSH32 0x4E487B7100000000000000000000000000000000000000000000000000000000 PUSH1 0x0 MSTORE PUSH1 0x22 PUSH1 0x4 MSTORE PUSH1 0x24 PUSH1 0x0 REVERT JUMPDEST PUSH32 0x4E487B7100000000000000000000000000000000000000000000000000000000 PUSH1 0x0 MSTORE PUSH1 0x41 PUSH1 0x4 MSTORE PUSH1 0x24 PUSH1 0x0 REVERT JUMPDEST PUSH1 0x0 PUSH1 0x1F NOT PUSH1 0x1F DUP4 ADD AND SWAP1 POP SWAP2 SWAP1 POP JUMP JUMPDEST PUSH1 0x5 DUP2 LT PUSH2 0x29C7 JUMPI PUSH2 0x29C6 PUSH2 0x2918 JUMP JUMPDEST JUMPDEST POP JUMP INVALID LOG2 PUSH5 0x6970667358 0x22 SLT KECCAK256 DUP3 0xD SWAP6 PUSH9 0xDB70B9AC7AFA4F72A1 0xE0 0xDB RETURNDATACOPY POP 0xEC XOR PUSH32 0xE5B61B698E50FA439F82BD2764736F6C63430008000033000000000000000000 "
        },
        "methodIdentifiers": {
          "addUser(string)": "18b8275a",
          "addUserCid(string,string)": "4ed0d683",
          "getCidReviews(string)": "0e34e749",
          "getCidStatus(string)": "43428308",
          "getNetworkCids()": "e0b97d57",
          "getUserCids(string)": "4a0a01ac",
          "getUserScore(string)": "1c6120e8",
          "getUserStatus(string)": "07e9c883",
          "refuteCid(string,string)": "19570ea9",
          "verifyCid(string,string)": "21ad8d14"
        }
      }
    }
  }
}